S00E00004861666E6F6E2E73726563BC
S11300000C949F010C94BE010C94BE010C94BE018F
S11300100C94BE010C94BE010C94BE010C94BE0160
S11300200C94BE010C94BE010C9459440C94BE0172
S11300300C94BE010C94BE010C94BE010C94BE0140
S11300400C94BE010C94BE010C94BE010C94BE0130
S11300500C943D3D0C94BE010C94BE010C94BE0165
S11300600C94BE010C94BE010C94BE010C94BE0110
S11300700C94BE010C94BE010C94BE010C94BE0100
S11300800C94BE010C94BE010C94BE010C94BE01F0
S11300900C94BE010C94BE010C94BE010C94BE01E0
S11300A00C94BE010C94BE010C94BE010C94482C1B
S11300B00C94BE010C94BE010C94BE010C944E42EF
S11300C00C94BE010C94DD400C946D410C94F041F1
S11300D00C941D430C94BE010C94BE010C94BE01FF
S11300E00C94BE010C94BE010C94BE010C94BE0190
S11300F00C94BE010C94BE010C94BE010C94BE0180
S11301000C940D2D0C94BE010C94FF2B0C94BE0189
S11301100C94BE010C94BE010C94BE010C94BE015F
S11301200C94BE010C94BE010C94BE010C94BE014F
S11301300C94BE010C94A9200C94BE010C94BE0135
S11301400C94BE010C94BE010C94BE010C94BE012F
S11301500C94BE010C94BE010C94BE010C94BE011F
S11301600C94BE010C94BE010C94BE010C94BE010F
S11301700C94BE010C94BE010C94BE010C94BE01FF
S11301800C94BE010C94BE010C94BE010C94BE01EF
S11301900C94BE010C94BE010C94BE010C94BE01DF
S11301A00C94BE010C94BE010C94BE010C94BE01CF
S11301B00C94F8250C94BE010C94BE010C94BE0161
S11301C00C94BE010C94BE010C94BE010C94BE01AF
S11301D00C94BE010C94BE010C94BE010C94BE019F
S11301E00C94BE010C94BE010C94BE010C94BE018F
S11301F00C94BE010C94BE010C94BE01B3103413D4
S1130200B310CF103413B310CF103413341334138A
S11302103413CF105C12A512971030112514281432
S11302202B144A1469148814A714B514C314D114D4
S1130230F0140F154D156C156F158E159C15AA1518
S1130240B8158217BB15BE15DD158217FC151B16D4
S11302503A1659162E1573168D1662179D16C11669
S1130260E51609172D175117651682176F177217A0
S11302707517B917C717D517EB17011817182D18C5
S11302803018331836184C1862188E18A4180F1921
S1130290251928192B194A195D1A4D1957196D1961
S11302A05D1A83199919AF19C51978185D1A5D1A61
S11302B0C8195D1A5D1A5D1A5D1A5D1A5D1A5D1A18
S11302C05D1ACB19F5195A1AEA23E4244825B823F0
S11302D0BE2254238623B2241625222380244E24AE
S11302E0F0227A251C24AC25AE2FB72FCA2FDD2F80
S11302F0F02F03300D30173021302B3035303F30A4
S11303004930CF30CF30CF30CF30794781478A471B
S1130310914798479F47A647AD47B44724482B4881
S11303207E487E487E487E4832483948404847489F
S11303304F4858486048694870487748BB4711247B
S11303401FBECFEFCDBFDFE2DEBF12E2A0E0B0E21E
S1130350E8EEF2EA00E00BBF02C007900D92A63C63
S1130360B107D9F726E2A6ECB2E201C01D92A43B84
S1130370B207E1F70E94D8300C9472510C9400003B
S1130380CF93DF93CDB7DEB780E096E020E2FC01A7
S1130390268380E096E020E8FC01258380E096E057
S11303A020E4FC0126830000DF91CF910895CF93D0
S11303B0DF93CDB7DEB780E096E020E2FC01258331
S11303C080E096E020E8FC01268380E096E020E4CB
S11303D0FC0125830000DF91CF910895CF93DF9333
S11303E0CDB7DEB780E096E020E2FC01268380E012
S11303F096E020E8FC01258380E096E020E4FC01FF
S113040025830000DF91CF910895CF93DF93CDB77B
S1130410DEB780E096E020E2FC01258380E096E0F0
S113042020E8FC01268380E096E020E4FC0126839A
S11304300000DF91CF910895CF93DF93CDB7DEB75E
S113044080E096E020E2FC01268380E096E020E84C
S1130450FC01268380E096E020E4FC012583000073
S1130460DF91CF910895CF93DF93CDB7DEB780E0CE
S113047096E020E2FC01258380E096E020E8FC0180
S1130480258380E096E020E4FC0125830000DF91D1
S1130490CF910895CF93DF93CDB7DEB780E696E092
S11304A024E0FC0125830000DF91CF910895CF93D0
S11304B0DF93CDB7DEB780E696E024E0FC01268327
S11304C00000DF91CF910895CF93DF93CDB7DEB7CE
S11304D08091AC22882329F080E696E021E0FC019B
S11304E025830000DF91CF910895CF93DF93CDB79B
S11304F0DEB78091AC22882329F080E696E021E0E3
S1130500FC0126830000DF91CF910895CF93DF9300
S11305101F92CDB7DEB789838091AC22882371F016
S11305208981882331F480EA96E020E8FC0126835F
S113053005C080EA96E020E8FC01258300000F90C6
S1130540DF91CF910895CF93DF93CDB7DEB781E0EC
S11305508093042060E080E00E94183760E081E02E
S11305600E94183760E082E00E9418370E9433022C
S11305700E9457020E9475028091C922833011F4AF
S11305800E94D7018091FB249091FC248F3F910518
S113059050F48091FB249091FC2401968093FB24D9
S11305A09093FC2404C01092FB241092FC248091AC
S11305B0D925813091F48091AF220E94E52583E012
S11305C08093D6258091F924882339F09091F924D9
S11305D08091AF22692F0E94A1220000DF91CF9168
S11305E00895CF93DF93CDB7DEB78091CC228823D3
S11305F029F00E9433021092CC2205C00E94EE0121
S113060081E08093CC228091C72261E00E94A122E4
S11306100000DF91CF910895CF93DF93CDB7DEB77C
S11306208091CD22882329F00E9433021092CD229A
S113063005C00E94D70181E08093CD228091C82219
S113064061E00E94A1220000DF91CF910895CF9331
S1130650DF9300D01F92CDB7DEB789836A834B83C3
S113066080E696E024E0FC01268380E696E024E020
S1130670FC0121838091AC22882351F080E696E02E
S113068021E0FC01268380E696E021E0FC01218341
S113069080E096E020E2FC01258380E096E020E201
S11306A0FC01218380E096E020E8FC01258380E0C2
S11306B096E020E8FC01218380E096E020E4FC0140
S11306C0258380E096E020E4FC01218383EA92E024
S11306D00E944A228093C62281EF92E00E944A221D
S11306E08093C7228CE093E00E944A228093C82220
S11306F089818093C9228A818093CA228B81813027
S113070031F41092052081E0809306200FC08B8184
S1130710823031F481E0809305201092062006C0D7
S113072081E08093052081E08093062000002396D9
S1130730CDBFDEBFDF91CF910895CF93DF931F929A
S1130740CDB7DEB7898389818093CB2289818823C1
S113075059F40E94EE0161E080E00E94183761E0E4
S113076081E00E94183706C00E94EE0161E082E039
S11307700E94183780910520882311F00E944A02B4
S11307808981882321F080910620882311F00E941A
S113079064028091DA25813009F0ADC080911D2674
S11307A090911E26892B09F042C08091DD2580316D
S11307B0C1F48091252690912626029791F4809188
S11307C0112690911226892B31F08091C6226EE079
S11307D00E94A1229FC08091C62260E00E94A122B3
S11307E099C08091C9228823E1F48091DD2580316C
S11307F091F48091112690911226892B31F08091E9
S1130800C6226EE00E94A12285C08091C62263E0C8
S11308100E94A1227FC08091C62261E00E94A12291
S113082079C08091C62267E00E94A12273C08091A2
S1130830DD25803161F48091112690911226892B57
S113084031F08091C6226BE00E94A12263C08091A6
S1130850DD25803131F48091112690911226892B67
S113086051F08091DD25883061F4809111269091BA
S11308701226892B31F08091C6226EE00E94A122BB
S113088049C08091DD25883031F480911126909102
S11308901226892B51F08091DD25843061F48091FA
S11308A0112690911226892B31F08091C62263E0A3
S11308B00E94A1222FC08091DD25823061F48091B5
S11308C0112690911226892B31F08091C62260E086
S11308D00E94A1221FC08091C922882331F48091F3
S11308E0C62261E00E94A12215C08091C62267E061
S11308F00E94A1220FC08091C922882331F48091E3
S1130900C62261E00E94A12205C08091C62267E050
S11309100E94A1228091D925813009F045C080919F
S1130920D825882309F03EC08091FD249091FE24AF
S11309300F9750F48091FD249091FE2401968093AA
S1130940FD249093FE2404C01092FD241092FE24F2
S11309508091CB22882321F481E08093D82503C0A1
S113096082E08093D8251092FF24109200251092E3
S113097001251092022510920325109204258091DE
S1130980AF220E94E52582E08093D6258091F92448
S1130990882351F09091F9248091AF22692F0E940D
S11309A0A12202C00E945E0500000F90DF91CF914A
S11309B00895CF93DF93CDB7DEB78091C6220E940E
S11309C0E5250E9433020E94C0010000DF91CF910F
S11309D00895CF93DF93CDB7DEB70E9433028091A1
S11309E0C922833011F40E94D7010000DF91CF9116
S11309F00895CF93DF93CDB7DEB78091C72261E02E
S1130A000E94A1220000DF91CF910895CF93DF933C
S1130A10CDB7DEB78091C7220E94E5250E9433023C
S1130A208091CA22882319F00E94C00106C08091D7
S1130A30C922833011F40E94D7010000DF91CF91C5
S1130A400895CF93DF93CDB7DEB78091C82261E0DC
S1130A500E94A1220000DF91CF910895CF93DF93EC
S1130A601F92CDB7DEB789838091C8220E94E52505
S1130A700E94330282E390E00E9439398F3F49F4A7
S1130A8088E090E00E945947892B19F40E940502DE
S1130A900CC08981882319F00E94C00106C080918E
S1130AA0C922833011F40E94D7018091C8220E9488
S1130AB0802200000F90DF91CF910895CF93DF93B0
S1130AC0CDB7DEB78091012590910225A091032531
S1130AD0B091042584369105A105B105A0F080915B
S1130AE0012590910225A0910325B0910425853F0D
S1130AF09140A105B10538F481E090E08093FF2492
S1130B0090930025C1C18091012590910225A09167
S1130B100325B0910425853F9140A105B105A0F0BE
S1130B208091012590910225A0910325B09104257F
S1130B30893E9340A105B10538F482E090E08093AA
S1130B40FF2490930025A0C1809101259091022556
S1130B50A0910325B0910425893E9340A105B105D8
S1130B60A0F08091012590910225A0910325B091D8
S1130B700425813D9740A105B10538F483E090E058
S1130B808093FF24909300257FC18091012590914B
S1130B900225A0910325B0910425813D9740A1052C
S1130BA0B105A0F08091012590910225A091032523
S1130BB0B0910425893B9B40A105B10538F484E03C
S1130BC090E08093FF24909300255EC180910125DD
S1130BD090910225A0910325B0910425893B9B4067
S1130BE0A105B105A0F08091012590910225A09165
S1130BF00325B0910425813A9F40A105B10538F43D
S1130C0085E090E08093FF24909300253DC180917E
S1130C10012590910225A0910325B0910425813AE4
S1130C209F40A105B105A0F0809101259091022576
S1130C30A0910325B091042589389341A105B105FC
S1130C4038F486E090E08093FF24909300251CC143
S1130C508091012590910225A0910325B09104254E
S1130C6089389341A105B105A0F0809101259091A7
S1130C700225A0910325B091042581379741A10550
S1130C80B10538F487E090E08093FF249093002529
S1130C90FBC08091012590910225A0910325B0917C
S1130CA0042581379741A105B105A0F08091012564
S1130CB090910225A0910325B091042589359B418B
S1130CC0A105B10538F488E090E08093FF24909367
S1130CD00025DAC08091012590910225A091032579
S1130CE0B091042589359B41A105B105A0F08091FF
S1130CF0012590910225A0910325B091042581340A
S1130D009F41A105B10538F489E090E08093FF2468
S1130D1090930025B9C08091012590910225A0915E
S1130D200325B091042581349F41A105B105A0F0AC
S1130D308091012590910225A0910325B09104256D
S1130D4089329342A105B10538F48AE090E080939A
S1130D50FF249093002598C080910125909102254D
S1130D60A0910325B091042589329342A105B105D0
S1130D70A0F08091012590910225A0910325B091C6
S1130D80042581319742A105B10538F48BE090E048
S1130D908093FF249093002577C080910125909142
S1130DA00225A0910325B091042581319742A10524
S1130DB0B105A0F08091012590910225A091032511
S1130DC0B091042581339547A105B10538F48CE031
S1130DD090E08093FF249093002556C080910125D4
S1130DE090910225A0910325B09104258133954764
S1130DF0A105B105A0F08091012590910225A09153
S1130E000325B091042581369A4EA105B10538F425
S1130E108DE090E08093FF249093002535C080916D
S1130E20012590910225A0910325B09104258136D6
S1130E309A4EA105B105A0F080910125909102255B
S1130E40A0910325B0910425813E9349A440B105A6
S1130E5038F48EE090E08093FF249093002514C032
S1130E608091012590910225A0910325B09104253C
S1130E70813E9349A440B10538F08FE090E080931F
S1130E80FF249093002500C00000DF91CF910895C6
S1130E90CF93DF9300D0CDB7DEB761E270E082E09C
S1130EA00E942F46882F90E089839A8389819A81B2
S1130EB0982F882789839A8360E270E082E00E94F9
S1130EC02F46282F30E089819A81822B932B8983A6
S1130ED09A8380E092E029813A81FC012487358756
S1130EE080E092E0FC01118280E092E020E2FC01CB
S1130EF0228380E092E023E0FC01248381E292E0FB
S1130F0028E0FC01208380E292E021E0FC012083C0
S1130F1080E092E021E0FC01208300000F900F901C
S1130F20DF91CF910895CF93DF93CDB7DEB780E003
S1130F3092E020E032E0F90120812160FC0120836D
S1130F400000DF91CF910895CF93DF93CDB7DEB743
S1130F5080E092E020E032E0F90120812E7FFC0164
S1130F6020830000DF91CF910895CF93DF93CDB715
S1130F70DEB780E092E020E032E0F90120812460D5
S1130F80FC0120830000DF91CF910895CF93DF937C
S1130F90CDB7DEB780E293E026E0FC01208780E253
S1130FA093E025ECFC01218780E293E026E0FC013C
S1130FB0228780E293E025ECFC01238780E293E022
S1130FC02DE0FC01208380E293E020E4FC012183F6
S1130FD080E293E029E0FC012283109274261092AF
S1130FE0772610923F260000DF91CF910895CF938A
S1130FF0DF93CDB7DEB76297CDBFDEBF8A8B198290
S113100080E1E6EBF2E2DE01129601900D928A9500
S1131010E1F78A89823069F480917426882331F05B
S11310208091742681508093742603C08FE080934E
S1131030742680917426882F90E09E012E5F3F4F86
S1131040820F931FFC018081898380E293E0FC017D
S11310508581882F90E081709927892BB1F38A8943
S1131060813019F08A89823001F580E293E0409161
S11310707526509176262981222F30E0220F331FC6
S1131080240F351FF90120813181FC01208F318F1C
S1131090809174268F3019F4109274260BC08091BD
S11310A074268F5F8093742605C080E293E0FC0170
S11310B0108E118E00006296CDBFDEBFDF91CF91FE
S11310C00895CF93DF9300D0CDB7DEB789839A8399
S11310D080E293E0FC018581882F90E0827099275B
S11310E0892BB1F380E293E029813A81FC01228FBC
S11310F0338F00000F900F90DF91CF910895CF931D
S1131100DF93CDB7DEB72897CDBFDEBF8F83688767
S11311101A821B821C821D8219820E9448070E9427
S1131120930786E290E00E9439398E838E81813064
S1131130F9F081E08093EA2283E18093F122109216
S1131140F0221092ED221092EE221092EB221092D5
S1131150EC221092F2221092F3221092EF224AE033
S113116050E06AEE72E286E290E00E94B33908C071
S11311704AE050E06AEE72E286E290E00E9454395E
S113118080911D2690911E268D8380E090E00E9420
S1131190392960E082E00E949E2680912926909160
S11311A02A26892B19F01092E62203C08F8180939E
S11311B0E6221092E7221092E8221092E922888512
S11311C0882F90E081309105A1F0823091051CF4C4
S11311D0892B39F053C082309105B1F0039789F11E
S11311E04DC060E070E083E190E00E94032A8E83AA
S11311F045C081E08093E72260E070E083E190E005
S11312000E94032A8E833AC081E08093E822809171
S1131210252690912626039751F4809133269091A8
S1131220342660E070E00E94032A8E8327C08091F8
S11312301F269091202660E070E00E94032A8E838E
S11312401DC081E08093E922809125269091262675
S1131250039751F4809133269091342660E070E036
S11312600E94032A8E8309C080911F269091202614
S113127060E070E00E94032A8E83000087E0809380
S1131280742681E08093CE228F81882379F0109296
S1131290EB221092EC221092F2221092F32280910F
S11312A0F32261E00E94BA0C8E8308C08091132659
S11312B09091142661E00E94BA0C8E8381E08093A1
S11312C0B02681E00E94F70787E0809374260E948D
S11312D04045A8958091B0268430D9F70E94A40790
S11312E08091252690912626029731F0809125261B
S11312F090912626019761F420911D2630911E2697
S113130080911F2690912026B9010E94032A0BC0C8
S113131020911D2630911E268091332690913426EB
S1131320B9010E94032A80E096E0FC01808589834C
S11313308981882F90E088709927892BD9F40E949D
S11313409B4580E896E021E0FC01258305C080E010
S113135096E0FC01808589838981882F90E08870DC
S11313609927892BA1F380E896E021E0FC012683EC
S1131370109274268D81882F90E080931D2690937F
S11313801E268091112690911226282F80912526C1
S113139090912626622F0E949E2680911D26909170
S11313A01E260E9439298091232690912426892B78
S11313B019F40E94404519C080E896E0FC0180853C
S11313C08C838C81882F90E084709927892B31F04D
S11313D080913B2690913C26892B39F00E94122B58
S11313E081E08093D5250E9440451092CE228091C1
S11313F0D022882309F43EC02091EB223091EC22C4
S11314008091F4229091F5228217930760F5209140
S1131410EB223091EC228091F4229091F522A901E3
S1131420481B590BCA018A839B838091EB229091BC
S1131430EC229C01369527958A819B8128173907D0
S113144060F481E090E08093192690931A2686E058
S11314500E94922F0E94F9040BC080913D206CE001
S11314600E94A12205C080913D206CE00E94A1222F
S11314701092D022000000002896CDBFDEBFDF917D
S1131480CF910895CF93DF93CDB7DEB78091B02687
S1131490813009F040C08091F6228F5F8093F6225C
S11314A08091F6228531B8F18091F7228A3050F587
S11314B00E94B50780E092E0FC018681882F90E0CD
S11314C081709927892BB1F38091F72291E0980FCD
S11314D09093F722882F90E020E032E0F9012089F0
S11314E03189880F991F8E529D4DFC0120833183D1
S11314F080E092E020E032E0F90126812160FC01E5
S1131500268309C082E08093B0261092F7221092BD
S1131510F6220E94A50A0000DF91CF910895CF938F
S1131520DF93CDB7DEB781E08093CF220000DF9157
S1131530CF910895CF93DF93CDB7DEB781E0809349
S1131540D1220000DF91CF910895CF93DF93CDB7DF
S1131550DEB72A97CDBFDEBF19861A861E821F8288
S11315608091B026823009F0FEC11A821B821C824F
S11315701D8283E08093B02619821CC08981882F44
S113158090E0880F991F8E529D4DFC0180819181BE
S1131590CC01A0E0B0E02A813B814C815D81820FC7
S11315A0931FA41FB51F8A839B83AC83BD8389814A
S11315B08F5F898389818A3008F38091E6228823AA
S11315C009F476C08A819B81AC81BD812AE030E038
S11315D040E050E0BC01CD010E948F50DA01C90106
S11315E09C01AD018091EB229091EC22CC01A0E012
S11315F0B0E082179307A407B507B0F48A819B81F2
S1131600AC81BD812AE030E040E050E0BC01CD0176
S11316100E948F50DA01C9018093EB229093EC224F
S11316208091F3228093F2228091F3228F5F809342
S1131630F3228091F322803238F48091F32263E024
S11316400E94BA0C88878FC14AE050E06AEE72E2C9
S113165086E290E00E94B3398091EB229091EC22D3
S113166080931526909316268091F222882F90E07D
S1131670809313269093142642E050E063E176E2CF
S113168088E090E00E94B3390E942C2089879A87D1
S1131690CE01099642E050E0BC0180E090E00E9457
S11316A0B3398091F22264E00E94BA0C88875BC14E
S11316B08091E7228823B9F11092E7228A819B81E5
S11316C0AC81BD812AE030E040E050E0BC01CD01B6
S11316D00E948F50DA01C901809315269093162633
S11316E020911526309116268091EB229091EC22C0
S11316F0969587952817390760F481E090E08093E8
S1131700192690931A2686E00E94922F0E94F904CB
S11317101FC11092192610921A2687E00E94922F58
S11317200E94060515C18091E822882309F4BBC0F4
S11317301092E8228A819B81AC81BD812AE030E04D
S113174040E050E0BC01CD010E948F50DA01C90194
S11317508E839F838E819F818939984008F49BC032
S113176081E090E0809317269093182688E00E94E9
S1131770922F0E94F90480911F2690912026892B94
S113178049F080911F2690912026019780931F266F
S1131790909320268091272690912826892B91F1D9
S11317A080911F2690912026809337269093382687
S11317B080911F26909120264697D9F48091372650
S11317C0909138269068809337269093382642E08B
S11317D050E067E376E280E190E00E94B3398091C3
S11317E03726909138269F77809337269093382612
S11317F03AC042E050E067E376E280E190E00E9484
S1131800B33931C080911F269091202680933926C8
S113181090933A2680911F26909120260897D9F418
S11318208091392690913A26906880933926909336
S11318303A2642E050E069E376E282E290E00E94D8
S1131840B33980911F26909120269F7780931F267D
S11318509093202608C042E050E069E376E282E2F9
S113186090E00E94B3390E942C2089879A87CE0188
S1131870099642E050E0BC0180E090E00E94B33958
S113188080911F2690912026892B09F461C081E064
S11318908093D1225DC0109217261092182689E0F9
S11318A00E94922F55C08091E922882369F11092F9
S11318B0E9228A819B81AC81BD812AE030E040E04D
S11318C050E0BC01CD010E948F50DA01C9018E8322
S11318D09F838E819F818939984060F081E090E0F8
S11318E0809317269093182688E00E94922F0E94D6
S11318F0F9042EC0109217261092182689E00E942F
S1131900922F0E94060524C08A819B81AC81BD81EF
S11319102AE030E040E050E0BC01CD010E948F504D
S1131920DA01C90180931526909316268A819B813A
S1131930AC81BD812AE030E040E050E0BC01CD0143
S11319400E948F50DA01C9018093F4229093F5220A
S1131950809113269091142664E00E94BA0C888723
S113196084E08093B02600002A96CDBFDEBFDF91CD
S1131970CF910895CF93DF9300D000D0CDB7DEB7D9
S11319808B836C831A828B81813208F098C0198210
S113199076C08B81882F90E02981222F30E002C00D
S11319A0959587952A95E2F781709927892B91F16E
S11319B08981882F90E082309105D1F083309105A0
S11319C02CF4009749F0019769F056C083309105D3
S11319D0A9F00497C9F050C080EA96E021E0FC0128
S11319E025834AC080EA96E022E0FC01258344C0B6
S11319F080EA96E024E0FC0125833EC080EA96E07C
S1131A0028E0FC01258338C080EA96E020E1FC014F
S1131A10258332C08981882F90E082309105D1F0EE
S1131A20833091052CF4009749F0019769F024C0A4
S1131A3083309105A9F00497C9F01EC080EA96E0AE
S1131A4021E0FC01268318C080EA96E022E0FC0134
S1131A50268312C080EA96E024E0FC0126830CC0B1
S1131A6080EA96E028E0FC01268306C080EA96E03E
S1131A7020E1FC012683000089818F5F89838981AD
S1131A80853008F486CF8C81843099F40E949B457C
S1131A9080E498E0FC01168280E498E02FEFFC01DA
S1131AA024870E944F451092CE2284E08093B02672
S1131AB003C081E08093B02681E08A8301C01A824A
S1131AC08A812496CDBFDEBFDF91CF910895CF9355
S1131AD0DF93CDB7DEB72697CDBFDEBF19821A825A
S1131AE039C089819A818D839E8388E090E08B83BD
S1131AF09C831CC08D819E8181709927892B59F00C
S1131B008D819E819695879521E0822720EA9227F0
S1131B108D839E8306C08D819E81969587958D8346
S1131B209E838B819C8101978B839C838B819C8179
S1131B30892B01F789819A81880F991F88509D4DBF
S1131B402D813E81FC012083318389819A81019614
S1131B5089839A8389819A818F3F910511F20CF2CE
S1131B6000002696CDBFDEBFDF91CF910895CF93BD
S1131B70DF93CDB7DEB72897CDBFDEBF89839A83C5
S1131B806B837C834D835E832F8338879091F82405
S1131B9081E08927882329F10E94670D81E08093E1
S1131BA0F8241FC08B819C819C012F5F3F4F2B83A6
S1131BB03C83FC018081282F30E08F819885822727
S1131BC093279927880F991F88509D4DFC012081E8
S1131BD031818F819885892F9927822793278F8335
S1131BE098878D819E819C01215031092D833E83EC
S1131BF0892BC1F68F8198852896CDBFDEBFDF91F2
S1131C00CF910895CF93DF93CDB7DEB72A97CDBF99
S1131C10DEBF1B821C821D821E821F82188644E343
S1131C2050E060E070E080E496E20E942A5180E097
S1131C3094E0FC018181882F90E081709927892BA1
S1131C40B1F70E94F64580E094E0FC018181882F81
S1131C5090E081709927892BB1F741E067E08FEF1D
S1131C609FEF0E94B1451092D4251DC1A8951D82F5
S1131C701E8280E094E0FC018181882F90E08170D5
S1131C809927892BB1F70E94DE450E94E13C282F59
S1131C908D819E81805C994DFC0120838D819E8184
S1131CA0805C994DFC0180818E3709F079C08D816B
S1131CB09E81892B09F074C08091D425882309F072
S1131CC06FC081E090E08D839E830EC00E94E13C52
S1131CD0282F8D819E81805C994DFC0120838D810C
S1131CE09E8101968D839E838D819E810A9770F3D8
S1131CF08091412090914220FC0181818F3FD1F459
S1131D008091412090914220FC0180859185982703
S1131D108927982789839A83809141209091422032
S1131D20FC01868197819827892798270A968B83B7
S1131D309C8313C08091412090914220FC018085B6
S1131D40918589839A838091412090914220FC015E
S1131D50868197810A968B839C8380914120909100
S1131D604220019620E030E047E050E0BC0181E0F1
S1131D7090EA0E94B70D89879A8729853A858981D7
S1131D809A812817390739F01D821E8287E19DE365
S1131D900E94D71B11C081E090E08F8398870CC00C
S1131DA08F819885892B31F08D819E8101968D8359
S1131DB09E8302C01D821E828D819E81C4972CF455
S1131DC08091D425882309F460CF1D821E821F824E
S1131DD018868091412090914220FC0181818F3F9F
S1131DE029F460E880E496E20E947B13809141200C
S1131DF090914220FC01868197818A9709F043C023
S1131E008091412090914220FC01828593858983B1
S1131E109A838B819C81AC014C5051098091412063
S1131E20909142200A96029620E030E0BC0181E0C5
S1131E3090EA0E94B70D89879A8729853A85898116
S1131E409A8128173907D1F484E3E0E4F6E2A8E79D
S1131E50B6E201900D928A95E1F78091412090912C
S1131E604220FC0184A595A59F778115964019F41D
S1131E700E948D170CC00E94F11309C087E19DE3F5
S1131E800E94D71B04C087E19DE30E94D71B80E01A
S1131E9094E0FC018181882F90E081709927892B3F
S1131EA0B1F70E94F6458091D425882309F4DECE4B
S1131EB080E02A96CDBFDEBFDF91CF910895CF9306
S1131EC0DF93CDB7DEB72797CDBFDEBF8D839E836B
S1131ED06F838D819E81FC018181882F90E08983AD
S1131EE09A8389819A818F3F910531F48F81882368
S1131EF079F08F81803861F089819A81892B29F06A
S1131F0089819A8180389105A9F48F818F3F91F45A
S1131F108D819E812F81FC0121838D819E81FC0115
S1131F2086819781382F292F8D819E81FC012683FC
S1131F30378305C08D819E812F81FC0121838D8192
S1131F409E81019620E030E047E050E0BC0181E052
S1131F5090EA0E94B70D8B839C838F818F3F31F46D
S1131F608B819C8198278927982702C08B819C812B
S1131F702D813E81F9018087918700002796CDBF8E
S1131F80DEBFDF91CF910895EF92FF920F931F93DD
S1131F90CF93DF93CDB7DEB7AA97CDBFDEBF8FA3B4
S1131FA098A769A74AA78FA198A5FC018681978164
S1131FB089879A878FA198A5FC0181818F3F31F48D
S1131FC089859A8598278927982702C089859A85C3
S1131FD089879A8789859A85849789839A838AA52C
S1131FE08F3F31F489A5882361F089A5803849F0B1
S1131FF08AA5882319F08AA5803879F489A58F3FAA
S113200061F48FA198A5FC0184A595A5382F292FEB
S11320108FA198A5FC0124A735A78AA58F3F31F489
S113202089A5882371F089A5803859F08AA5882369
S113203021F08AA5803809F01DC389A58F3F09F0D6
S113204019C38FA198A58E968F8398870DC38AA5EF
S11320508F3F49F48F819885FC0180819181982775
S11320608927982705C08F819885FC0180819181FB
S11320708B879C878F819885FC018081918198272B
S1132080892798278F8B988F2F89388D8F819885F2
S1132090FC012083318389819A81029789839A8301
S11320A08F81988502968F8398878AA58F3F49F4FC
S11320B08F819885FC0180819181982789279827B1
S11320C005C08F819885FC01808191818D879E87D1
S11320D08F819885FC018081918198278927982791
S11320E08D8B9E8B2D893E898F819885FC01208361
S11320F0318389819A81029789839A838F81988514
S113210002968F8398878D859E85CC01A0E0B0E0F0
S113211040E050E02FE030E0841B950B281739078E
S113212008F4A2C282509F4FFC010C94B1508F81DD
S11321309885FC0180819181982789279827898F28
S11321409A8F298D3A8D8F819885FC012083318364
S113215089819A81029789839A838F8198850296CF
S11321608F83988781C28F819885FC0180819181BA
S1132170982789279827898F9A8F298D3A8D8F815F
S11321809885FC012083318389819A810297898310
S11321909A838F81988502968F83988765C28F81F1
S11321A09885FC0180819181A281B3818F8F98A34E
S11321B0A9A3BAA38F8D98A1A9A1BAA12B2F3327C4
S11321C0442755278F8D98A1A9A1BAA1CD01AA278B
S11321D0BB27BA2FA92F982F8827AA27BB27822B82
S11321E0932BA42BB52B9C01AD01442755278F8D30
S11321F098A1A9A1BAA1AA27BB27E92EFA2E0B2FD1
S113220011278F8D98A1A9A1BAA1BA2FA92F982F10
S11322108827AA27BB278E299F29A02BB12BDC0155
S113222099278827822B932BA42BB52B8BA39CA3B4
S1132230ADA3BEA38BA19CA1ADA1BEA12F81388566
S1132240F90180839183A283B38389819A8104975E
S113225089839A838F81988504968F83988704C293
S11322608AA58F3F49F48F819885FC0180819181F3
S113227098278927982705C08F819885FC0180813C
S113228091818F87988B8F819885FC0180819181C2
S11322909827892798278D8B9E8B2D893E898F813E
S11322A09885FC01208331838F81988502968F83E2
S11322B0988789819A81029789839A838AA58F3F17
S11322C049F48F819885FC01808191819827892721
S11322D0982705C08F819885FC01808191818D8329
S11322E09E838F819885FC0180819181982789271D
S11322F098278B8F9C8F2B8D3C8D8F819885FC012B
S1132300208331838F81988502968F839887898172
S11323109A81029789839A838F859889419741F09E
S11323208F859889429721F08F859889892BF1F4BC
S11323308D819E8181709927892B29F08D819E81C1
S113234001968D839E832F8138858D819E81820F96
S1132350931F8F83988729813A818D819E81A9015A
S1132360481B590BCA0189839A837EC11B821C8234
S11323709AC08F8598898530910579F086309105CA
S113238030F48230910549F0039739F187C08630E3
S1132390910519F10B9709F181C08F819885FC0192
S11323A0808191818D8F9E8F8D8D9E8D9827892719
S11323B09827898F9A8F298D3A8D8F819885FC0172
S11323C0208331838F81988502968F8398878981B2
S11323D09A81029789839A8361C08F819885FC01D1
S11323E080819181A281B3818F8F98A3A9A3BAA37D
S11323F08F8D98A1A9A1BAA12B2F33274427552744
S11324008F8D98A1A9A1BAA1CD01AA27BB27BA2F64
S1132410A92F982F8827AA27BB27822B932BA42B7D
S1132420B52B9C01AD01442755278F8D98A1A9A1F7
S1132430BAA1AA27BB27E92EFA2E0B2F11278F8DBD
S113244098A1A9A1BAA1BA2FA92F982F8827AA27A2
S1132450BB278E299F29A02BB12BDC019927882724
S1132460822B932BA42BB52B8BA39CA3ADA3BEA330
S11324708BA19CA1ADA1BEA12F813885F9018083D8
S11324809183A283B3838F81988504968F839887E1
S113249089819A81049789839A8300008B819C8126
S11324A001968B839C832B813C818D819E8128178F
S11324B0390708F45ECFD8C08AA58F3F49F48F81CD
S11324C09885FC018081918198278927982705C0E8
S11324D08F819885FC01808191818B8F9C8F8B8D5E
S11324E09C8D982789279827898F9A8F298D3A8DD3
S11324F08F819885FC01208331838F819885029692
S11325008F83988789819A81029789839A838B8D97
S11325109C8D81709927892B29F08B8D9C8D019638
S11325208B8F9C8F8B8D9C8D2F813885820F931F71
S11325308F83988729813A818B8D9C8DA901481BB3
S1132540590BCA0189839A838FC08AA58F3F49F4A6
S11325508F819885FC01808191819827892798270C
S113256005C08F819885FC01808191818B8F9C8F20
S113257089819A81029789839A838B8D9C8D892B7B
S113258071F089819A81181619064CF48AA58F3F37
S113259031F489A5882371F089A5803859F08AA57A
S11325A0882321F08AA5803809F04BC089A58F3F84
S11325B009F047C08F819885FC018081918198271B
S11325C089279827898F9A8F298D3A8D8F819885AD
S11325D0FC01208331838F81988502968F839887AD
S11325E08B8D9C8D969587958D839E831B821C82F3
S11325F020C08F819885FC0180819181982789274B
S113260098278D8F9E8F2D8D3E8D8F819885FC010F
S1132610208331838F81988502968F83988789815F
S11326209A81029789839A838B819C8101968B83FB
S11326309C832B813C818D819E8128173907C8F2A8
S113264012C08B8D9C8D2F813885820F931F8F83B1
S1132650988729813A818B8D9C8DA901481B590B40
S1132660CA0189839A83000089819A811816190600
S11326700CF4EDCC8FA198A5FC0181818F3F51F41E
S11326808FA198A5FC01868197819827892798278F
S1132690029706C08FA198A5FC01868197810297B5
S11326A0898B9A8B8FA198A50C9649895A8920E029
S11326B030E0BC0181E090EA0E94B70D8B8B9C8BCB
S11326C089A58F3F31F48B899C899827892798277E
S11326D002C08B899C892FA138A5F9018287938731
S11326E00000AA96CDBFDEBFDF91CF911F910F915D
S11326F0FF90EF900895CF93DF93CDB7DEB728977F
S1132700CDBFDEBF8E839F8368878E819F81FC014E
S1132710818189838E819F81FC01868197818A834F
S11327209B8399818885981719F480E090E053C0C1
S11327308E819F8168850E945F0F89818F3F31F46C
S11327408885882361F08885803849F089818823C9
S113275019F08981803851F488858F3F39F48E814E
S11327609F81498168850E94C40F33C088858F3F4B
S113277031F48A819B8198278927982702C08A810E
S11327809B818A839B838A819B81AC01425051093E
S11327908E819F810C9620E030E0BC0181E090EABC
S11327A00E94B70D8C839D8388858F3F31F48C8183
S11327B09D8198278927982702C08C819D818C83CD
S11327C09D838E819F810A962C813D81FC0120830B
S11327D0318380E090E02896CDBFDEBFDF91CF91BA
S11327E008950F931F93CF93DF9300D000D0CDB7FC
S11327F0DEB719821A821B821C8280913F2090913D
S11328004020C29642E050E060E070E00E942A510D
S113281080913F2090914020FC0186A597A5898353
S11328209A8389819A81CC01A0E0B0E040E05DE325
S11328302AE230E0841B950B2817390708F462C399
S1132840825F9E4FFC010C94B1500E94171B5CC325
S11328500E94171B59C342E050E06DE076E282E02B
S113286090E00E94543980913F2090914020209123
S11328700D2630910E26FC0122AB33AB0E94761A52
S113288080910D2690910E269F7380930D26909330
S11328900E263AC342E050E06FE076E284E090E036
S11328A00E94543980913F209091402020910F261E
S11328B030911026FC0122AB33AB0E94761A809132
S11328C00F26909110269F7380930F2690931026C5
S11328D01BC342E050E061E176E286E090E00E94B2
S11328E0543980913F2090914020209111263091BD
S11328F01226FC0122AB33AB0E94761A809111267A
S1132900909112269F738093112690931226FCC2F5
S113291042E050E063E176E288E090E00E945439BE
S113292080913F20909140202091132630911426CD
S1132930FC0122AB33AB0E94761A8091132690914E
S113294014269F738093132690931426DDC28091DE
S11329503F20909140202091152630911626FC01AD
S113296022AB33AB0E94761ACFC280913F20909164
S113297040202091172630911826FC0122AB33AB5E
S11329800E94761AC1C280913F20909140202091EC
S1132990192630911A26FC0122AB33AB0E94761A19
S11329A0B3C242E050E06BE176E28CE090E00E943A
S11329B0543980913F209091402020911B263091E2
S11329C01C26FC0122AB33AB0E94761A80911B2695
S11329D090911C269F7380931B2690931C2694C26F
S11329E042E050E06DE176E28EE090E00E945439DE
S11329F080913F209091402020911D2630911E26E9
S1132A00FC0122AB33AB0E94761A80911D26909173
S1132A101E269F7380931D2690931E2675C242E046
S1132A2050E067E376E280E190E00E9454398091BF
S1132A303F20909140202091372630913826FC0188
S1132A4022AB33AB0E94761A8091372690913826B8
S1132A509F73809337269093382656C242E050E005
S1132A6069E376E282E290E00E94543980913F204B
S1132A70909140202091392630913A26FC0122ABD6
S1132A8033AB0E94761A8091392690913A269F732F
S1132A908093392690933A2637C242E050E061E2AF
S1132AA076E282E190E00E94543980913F20909137
S1132AB040202091212630912226FC0122AB33AB09
S1132AC00E94761A80912126909122269F738093EA
S1132AD021269093222618C20E94171B15C242E099
S1132AE050E063E276E280E290E00E945439809103
S1132AF03F20909140202091232630912426FC01F0
S1132B0022AB33AB0E94761A80912326909124261F
S1132B109F738093232690932426F6C180913F20AF
S1132B20909140202091252630912626FC0122AB4D
S1132B3033AB0E94761AE8C180913F2090914020E7
S1132B402091272630912826FC0122AB33AB0E942A
S1132B50761ADAC180913F20909140202091292655
S1132B6030912A26FC0122AB33AB0E94761ACCC1E9
S1132B700E94761AC9C10E94171BC6C142E050E0E8
S1132B806BE276E284E190E00E94543980913F2028
S1132B909091402020912B2630912C26FC0122ABD1
S1132BA033AB0E94761A80912B2690912C269F732A
S1132BB080932B2690932C26A7C142E050E06DE22F
S1132BC076E286E190E00E94543980913F20909112
S1132BD0402020912D2630912E26FC0122AB33ABD0
S1132BE00E94761A80912D2690912E269F738093B1
S1132BF02D2690932E2688C142E050E06FE276E2C3
S1132C0088E190E00E94543980913F2090914020C7
S1132C1020912F2630913026FC0122AB33AB0E9449
S1132C20761A80912F26909130269F7380932F26B9
S1132C309093302669C142E050E061E376E28AE194
S1132C4090E00E94543980913F209091402020913F
S1132C50312630913226FC0122AB33AB0E94761A26
S1132C6080913126909132269F73809331269093E0
S1132C7032264AC142E050E063E376E28CE190E020
S1132C800E94543980913F20909140202091332616
S1132C9030913426FC0122AB33AB0E94761A80912A
S1132CA03326909134269F73809333269093342651
S1132CB02BC180913F20909140202AE831E0FC0113
S1132CC022AB33AB0E94761A1FC180913F209091B2
S1132CD040202091AC22222F30E0FC0122AB33AB08
S1132CE00E94761A11C180913F209091402020E9E2
S1132CF030E0F9012281422F50E020E930E0F9016F
S1132D002181222F30E0322F2227242B352BFC0166
S1132D1022AB33AB0E94761AF7C080913F2090918A
S1132D20402020E930E0F9012081222F30E0FC012D
S1132D3022AB33AB0E94761AE7C069E070E082E010
S1132D400E942F46882F90E08B839C838B819C81EB
S1132D50982F88278B839C8300913F2010914020DB
S1132D6068E070E082E00E942F46282F30E08B81DB
S1132D709C81822B932BF80182AB93AB0E94761A31
S1132D80C3C06BE070E082E00E942F46882F90E081
S1132D908B839C838B819C81982F88278B839C8336
S1132DA000913F20109140206AE070E082E00E9490
S1132DB02F46282F30E08B819C81822B932BF801A6
S1132DC082AB93AB0E94761A9FC06DE070E082E004
S1132DD00E942F46882F90E08B839C838B819C815B
S1132DE0982F88278B839C8300913F20109140204B
S1132DF06CE070E082E00E942F46282F30E08B8147
S1132E009C81822B932BF80182AB93AB0E94761AA0
S1132E107BC062E170E082E00E942F46882F90E040
S1132E208B839C838B819C81982F88278B839C83A5
S1132E3000913F201091402060E170E082E00E9408
S1132E402F46282F30E08B819C81822B932BF80115
S1132E5082AB93AB0E94761A57C064E170E082E0C3
S1132E600E942F46882F90E08B839C838B819C81CA
S1132E70982F88278B839C8300913F2010914020BA
S1132E8063E170E082E00E942F46282F30E08B81BE
S1132E909C81822B932BF80182AB93AB0E94761A10
S1132EA033C000913F201091402065E170E082E042
S1132EB00E942F46882F90E0F80182AB93AB0E94CA
S1132EC0761A22C000913F201091402080E00E9499
S1132ED0922FF80182AB93AB0E94761A15C00E9420
S1132EE0171B12C00E94171B0FC000913F201091A6
S1132EF0402082E10E94922FF80182AB93AB0E94A2
S1132F00761A02C00E94171B00002496CDBFDEBFB4
S1132F10DF91CF911F910F9108950F931F93CF933A
S1132F20DF93CDB7DEB72697CDBFDEBF1D821E82ED
S1132F301B821C8219821A82809141209091422026
S1132F40FC0186A597A58B839C838B819C81CC01F6
S1132F50A0E0B0E040E05DE32AE230E0841B950BA2
S1132F602817390708F4A9C2875C9E4FFC010C940A
S1132F70B1508091412090914220FC0182A993A9F3
S1132F808093092690930A260E94761A99C280910A
S1132F90412090914220FC0182A993A980930B26A1
S1132FA090930C260E94761A8BC2809141209091B6
S1132FB04220FC0182A993A980930D2690930E26AA
S1132FC042E050E06DE076E282E090E00E94B339A6
S1132FD00E94761A75C28091412090914220FC0192
S1132FE082A993A980930F269093102642E050E083
S1132FF06FE076E284E090E00E94B3390E94761A92
S11330005FC28091412090914220FC0182A993A942
S1133010809311269093122642E050E061E176E21B
S113302086E090E00E94B3390E94761A49C28091EA
S1133030412090914220FC0182A993A980931326F8
S11330409093142642E050E063E176E288E090E059
S11330500E94B3390E94761A33C20E94171B30C2F1
S11330600E94171B2DC20E94171B2AC28091412067
S113307090914220FC0182A993A980931B269093EE
S11330801C2642E050E06BE176E28CE090E00E9486
S1133090B3390E94761A14C2809141209091422043
S11330A0FC0182A993A980931D2690931E2642E0D9
S11330B050E06DE176E28EE090E00E94B3390E9428
S11330C0761AFEC18091412090914220FC0182A990
S11330D093A9809337269093382642E050E067E323
S11330E076E280E190E00E94B3390E94761AE8C14A
S11330F08091412090914220FC0182A993A9809360
S1133100392690933A2642E050E069E376E282E27F
S113311090E00E94B3390E94761AD2C18091412076
S113312090914220FC0182A993A980932126909337
S1133130222642E050E061E276E282E190E00E94E1
S1133140B3390E94761ABCC18091412090914220EB
S1133150FC0182A993A980933526909336260E9478
S1133160761A80913526909136260197B1F442E083
S113317050E065E376E28EE190E00E94B3390E946C
S11331802C208D839E83CE01059642E050E0BC0145
S113319080E090E00E94B3393EC080913526909142
S11331A036260497C1F580E094E0FC018181882FE4
S11331B090E081709927892BB1F70E94F64580E051
S11331C094E0FC018181882F90E081709927892BFC
S11331D0B1F741E067E08FEF9FEF0E94B14580E0D7
S11331E094E0FC018181882F90E081709927892BDC
S11331F0B1F70E94DE4519821A8208C080E094E08B
S1133200FC018085918589839A83A89589819A8117
S11332108A3F910598F381E08093D42551C1809130
S1133220412090914220FC0182A993A980932326F6
S11332309093242642E050E063E276E280E290E05C
S11332400E94B3390E94761A3BC10E94171B38C1F1
S11332500E94171B35C18091412090914220FC01AE
S113326082A993A98093292690932A2680912926BE
S113327090912A26892B31F061E084E390E00E944A
S1133280793905C06FEF84E390E00E9479390E9498
S1133290761A16C10E94171B13C16FEF82E390E0E8
S11332A00E9479390E9439460E94761A09C1809198
S11332B0412090914220FC0182A993A980932B265E
S11332C090932C2642E050E06BE276E284E190E0B9
S11332D00E94B3390E94761AF3C0809141209091E4
S11332E04220FC0182A993A980932D2690932E2637
S11332F042E050E06DE276E286E190E00E94B3396C
S11333000E94761ADDC08091412090914220FC01F8
S113331082A993A980932F269093302642E050E00F
S11333206FE276E288E190E00E94B3390E94761A57
S1133330C7C08091412090914220FC0182A993A9A9
S1133340809331269093322642E050E061E376E2A6
S11333508AE190E00E94B3390E94761AB1C080914C
S1133360412090914220FC0182A993A980933326A5
S11333709093342642E050E063E376E28CE190E0FF
S11333800E94B3390E94761A9BC00E94171B98C0F2
S11333900E94171B95C08091412090914220FC010E
S11333A082A993A980933B2690933C2680913B2647
S11333B090913C26892B59F400913F201091402094
S11333C080E00E94922FF80182AB93AB0BC08091F6
S11333D03F209091402020913B2630913C26FC01D7
S11333E022AB33AB0E94761A6BC08091AD220E944F
S11333F080228FEF8093AD228091412090914220D2
S1133400FC0182A993A988279170892B19F081E086
S11334108093DA258091412090914220FC0182A979
S113342093A9992780933D2690933E2680913D262B
S113343090913E2683309105D1F08430910530F48B
S11334408130910561F0029771F021C085309105BA
S1133450B1F08530910578F00697A9F018C08DE099
S11334608093F92417C08AE08093F92413C086E07E
S11334708093F9240FC085E08093F9240BC08FE07A
S11334808093F92407C089E08093F92403C0109243
S1133490F924000081E08093D9258091AF228F3FE9
S11334A031F48CE79FE20E944A228093AF220E946B
S11334B0761A06C00E94171B03C00E94171B000047
S11334C00E942C208D839E83CE01059642E050E01D
S11334D0BC0180E090E00E94B33900002696CDBF85
S11334E0DEBFDF91CF911F910F9108950F931F932A
S11334F0CF93DF93CDB7DEB780913F2090914020EA
S1133500FC0181818F3F79F480913F20909140208C
S11335102AE230E0FC012683378360E888E796E2FC
S11335200E947B1309C080913F20909140202AE2A1
S113353030E0FC012683378380913F209091402026
S11335402FEFFC01228380913F2090914020FC01C9
S1133550138280913F209091402020913F20309110
S11335604020F90124A535A53068FC0124A735A71E
S113357080913F209091402020913F203091402025
S1133580F90124812068FC01248384E390E0809382
S1133590B1269093B22600913F2010914020809153
S11335A03F2090914020C49620E030E047E050E076
S11335B0BC0181E090EA0E94B70DF80180879187F1
S11335C000913F201091402080913F209091402015
S11335D0FC0186819781AC014250510980913F20C2
S11335E0909140200A96029620E030E0BC0181E0F0
S11335F090EA0E94B70DF8018287938780913F205B
S113360090914020FC018181803829F46FEF88E794
S113361096E20E947B138091B1269091B2260E947B
S11336201F3D0000DF91CF911F910F9108950F93DB
S11336301F93CF93DF93CDB7DEB780913F20909156
S113364040200A9644E250E060E070E00E942A5173
S113365080913F2090914020209141203091422040
S1133660F90124A535A5FC0124A735A780913F20A5
S113367090914020FC0181818F3F79F480913F201B
S11336809091402024E230E0FC012683378360E8F7
S113369088E796E20E947B1309C080913F209091B5
S11336A0402024E230E0FC012683378380913F20D0
S11336B0909140202FEFFC01228380913F20909134
S11336C04020FC01138280913F2090914020209162
S11336D03F2030914020F90124A535A53068FC0134
S11336E024A735A780913F209091402020913F202E
S11336F030914020F90124812F77FC0124838091AB
S11337003F2090914020FC01868197810A96809306
S1133710B1269093B22600913F20109140208091D1
S11337203F2090914020C49620E030E047E050E0F4
S1133730BC0181E090EA0E94B70DF801808791876F
S113374000913F201091402080913F209091402093
S1133750FC0186819781AC014250510980913F2040
S1133760909140200A96029620E030E0BC0181E06E
S113377090EA0E94B70DF8018287938780913F20D9
S113378090914020FC018181803829F46FEF88E713
S113379096E20E947B138091B1269091B2260E94FA
S11337A01F3D0000DF91CF911F910F9108950F935A
S11337B01F93CF93DF9300D0CDB7DEB789839A836D
S11337C089819A818F312DE3920709F458C180329F
S11337D0EDE39E0748F48331FDE39F07A1F08731B1
S11337E09D4309F4B2C0E6C38A32EDE39E0709F4AF
S11337F095C28B32FDE39F0709F436C388329D439B
S113380009F4D4C1D7C344E350E060E070E088E732
S113381096E20E942A5180913F20909140202EE709
S1133820FC01208380913F20909140202FE0FC01F7
S1133830228380913F2090914020FC0113821092BA
S1133840FA2480913F20909140202091FA24FC0199
S1133850248380913F209091402020913F203091FB
S11338604020F90124812068FC01248380913F20B9
S11338709091402020EEFC01258380913F2090917F
S1133880402020E036E8FC0124A735A780913F20A2
S1133890909140202AE230E0FC0126833783809116
S11338A03F209091402023E13DE3FC0126A737A768
S11338B080913F209091402022E030E0FC0120AB39
S11338C031AB00913F201091402080E00E94922F64
S11338D0F80182AB93AB84E390E08093B12690939C
S11338E0B22600913F201091402080913F2090917A
S11338F04020019620E030E047E050E0BC0181E048
S113390090EA0E94B70DF8018087918700913F20CB
S11339101091402080913F2090914020FC018681AD
S11339209781AC014250510980913F2090914020F1
S11339300A96029620E030E0BC0181E090EA0E9401
S1133940B70DF8018287938735C344E350E060E004
S113395070E088E796E20E942A5180913F2090917E
S113396040202EE7FC01208380913F20909140204D
S1133970FC01118280913F209091402027E13DE39A
S1133980FC0126A737A780913F209091402020E09A
S113399036E8FC0124A735A780913F209091402070
S11339A02AE230E0FC012683378380913F20909106
S11339B040202FE0FC01228380913F209091402001
S11339C0FC01138280913F209091402020913F2060
S11339D030914020F90124812F77FC0124838091C8
S11339E03F209091402020EEFC01258380913F20D0
S11339F09091402022E030E0FC0120AB31AB80917B
S1133A003F2090914020FC01868197810A96809303
S1133A10B1269093B22600913F20109140208091CE
S1133A203F2090914020C49620E030E047E050E0F1
S1133A30BC0181E090EA0E94B70DF801808791876C
S1133A4000913F201091402080913F209091402090
S1133A50FC0186819781AC014250510980913F203D
S1133A60909140200A96029620E030E0BC0181E06B
S1133A7090EA0E94B70DF801828793879BC244E3C2
S1133A8050E060E070E088E796E20E942A5180915D
S1133A903F20909140202EE7FC01208380913F201D
S1133AA090914020FC01118280913F209091402010
S1133AB02FE0FC01228380913F2090914020FC0163
S1133AC0138280913F2090914020FC0114828091C8
S1133AD03F209091402020EEFC01258380913F20DF
S1133AE09091402021E036E0FC0124A735A7809185
S1133AF03F20909140202AE230E0FC012683378366
S1133B0080913F20909140202FE13DE3FC0126A7C6
S1133B1037A780913F209091402022E030E0FC01C3
S1133B2020AB31AB00913F201091402080E00E94F7
S1133B30922FF80182AB93AB84E390E08093B1269B
S1133B409093B22600913F201091402080913F2015
S1133B5090914020019620E030E047E050E0BC0125
S1133B6081E090EA0E94B70DF80180879187009167
S1133B703F201091402080913F2090914020FC01F3
S1133B8086819781AC014250510980913F209091E8
S1133B9040200A96029620E030E0BC0181E090EAE1
S1133BA00E94B70DF8018287938704C244E350E072
S1133BB060E070E088E796E20E942A5180913F20FD
S1133BC0909140202EE7FC01208380913F2090912A
S1133BD04020FC01118280913F20909140202FE0F1
S1133BE0FC01228380913F2090914020FC011382AC
S1133BF080913F20909140202091FA24FC0124835D
S1133C0080913F209091402020913F20309140208E
S1133C10F90124812068FC01248380913F20909144
S1133C20402020EEFC01258380913F20909140208C
S1133C3020E036E8FC0124A735A780913F2090912D
S1133C4040202AE230E0FC012683378380913F2024
S1133C509091402028E23DE3FC0126A737A78091FC
S1133C603F209091402022E030E0FC0120AB31ABBA
S1133C7080913B2690913C26892B59F400913F205A
S1133C801091402080E00E94922FF80182AB93AB08
S1133C900BC080913F209091402020913B26309191
S1133CA03C26FC0122AB33AB84E390E08093B12645
S1133CB09093B22600913F201091402080913F20A4
S1133CC090914020019620E030E047E050E0BC01B4
S1133CD081E090EA0E94B70DF801808791870091F6
S1133CE03F201091402080913F2090914020FC0182
S1133CF086819781AC014250510980913F20909177
S1133D0040200A96029620E030E0BC0181E090EA6F
S1133D100E94B70DF801828793874CC144E350E0B9
S1133D2060E070E088E796E20E942A5180913F208B
S1133D30909140202EE7FC01208380913F209091B8
S1133D404020FC01118280913F20909140202FE07F
S1133D50FC01228380913F2090914020FC0113823A
S1133D6080913F20909140202091FA24FC012483EB
S1133D7080913F209091402020913F20309140201D
S1133D80F90124812068FC01248380913F209091D3
S1133D90402020EEFC01258380913F20909140201B
S1133DA021E036E0FC0124A735A780913F209091C3
S1133DB040202AE230E0FC012683378380913F20B3
S1133DC0909140202AE23DE3FC0126A737A7809189
S1133DD03F209091402022E030E0FC0120AB31AB49
S1133DE000913F201091402082E10E94922FF8011F
S1133DF082AB93AB84E390E08093B1269093B22698
S1133E0000913F201091402080913F2090914020CC
S1133E10019620E030E047E050E0BC0181E090EA08
S1133E200E94B70DF8018087918700913F2010917F
S1133E30402080913F2090914020FC018681978111
S1133E40AC014250510980913F20909140200A9644
S1133E50029620E030E0BC0181E090EA0E94B70DB8
S1133E60F80182879387A6C044E350E060E070E0E5
S1133E7088E796E20E942A5180913F209091402049
S1133E802EE7FC01208380913F2090914020FC018B
S1133E90118280913F20909140202FE0FC012283E9
S1133EA080913F2090914020FC01138280913F201B
S1133EB0909140202091FA24FC01248380913F209A
S1133EC09091402020913F2030914020F90124819D
S1133ED02068FC01248380913F209091402020EEB3
S1133EE0FC01258380913F209091402021E036E021
S1133EF0FC0124A735A780913F20909140202AE21D
S1133F0030E0FC012683378380913F20909140204C
S1133F102BE23DE3FC0126A737A780913F20909137
S1133F20402022E030E0FC0120AB31AB00913F2087
S1133F301091402082E10E94922FF80182AB93AB52
S1133F4084E390E08093B1269093B22600913F20C1
S1133F501091402080913F2090914020019620E0D4
S1133F6030E047E050E0BC0181E090EA0E94B70DE8
S1133F70F8018087918700913F2010914020809123
S1133F803F2090914020FC0186819781AC014250F2
S1133F90510980913F20909140200A96029620E09A
S1133FA030E0BC0181E090EA0E94B70DF8018287FD
S1133FB09387000080913F2090914020FC018181F3
S1133FC0882329F46FEF88E796E20E947B1380919F
S1133FD0FA24882334F08091FA248F5F8093FA24A2
S1133FE002C01092FA248091B1269091B2260E94C8
S1133FF01F3D00000F900F90DF91CF911F910F9103
S11340000895CF93DF93CDB7DEB72597CDBFDEBF3D
S113401019821C821D821A821B82CE01049642E000
S113402050E0BC0180E090E00E9454390E942C20B2
S11340308A839B838C819D812A813B812817390740
S113404019F481E0898301C0198289812596CDBF45
S1134050DEBFDF91CF910895CF93DF93CDB7DEB765
S1134060A497CDBFDEBF19821A82CE01039642E225
S113407050E0BC0182E090E00E945439CE010396E6
S113408020E030E042E250E0BC0181E090EA0E948E
S1134090B70D89839A8389819A81A496CDBFDEBFA7
S11340A0DF91CF910895CF93DF93CDB7DEB780E84A
S11340B091E023E6FC01208380E891E020EDFC01FF
S11340C0218380E499E028E0FC01208380E499E0E6
S11340D029E2FC01238380E499E020E1FC012183AF
S11340E00000DF91CF910895CF93DF93CDB7DEB772
S11340F080E499E0FC0110A280E499E0FC0111A2A3
S113410010920525109206258CE499E02CE439E000
S1134110F90120812160FC0120838CE099E02CE0EE
S113412039E0F90120812160FC01208380E099E0DD
S1134130FC0110A211A280E099E022E0FC01268398
S113414080E099E021E0FC0120830000DF91CF9121
S113415008951F920F9200903F000F921124009037
S11341603B000F922F933F938F939F93EF93FF9373
S1134170CF93DF93CDB7DEB780E099E020E039E05C
S1134180F9012081207FFC0120838CE499E0FC016B
S11341908081882F90E081709927892B39F08FEFE7
S11341A09FEF809305259093062514C080E499E041
S11341B0FC0180A1282F30E080E499E0FC0181A17A
S11341C0882F90E0982F8827820F931F80930525CE
S11341D0909306250000DF91CF91FF91EF919F917D
S11341E08F913F912F910F9000923B000F9000927E
S11341F03F000F901F901895CF93DF93CDB7DEB794
S11342002797CDBFDEBF8F8319821B821C821D823C
S11342101E8281E08A832091AC263091AD268F8165
S1134220882F90E0880F991F820F931FFC01208133
S113423031818091052590910625A901481B590BD0
S1134240CA018B839C838B819C8199231CF4919557
S11342508195910903970CF459C08B819C81992312
S11342601CF49195819591099C0180910725909169
S113427008252817390749F08B819C818B3F9F4F74
S11342803CF08B819C8106971CF481E0898302C0F9
S113429082E0898320917526309176268F81882F3C
S11342A090E0880F991F820F931FFC0180819181F8
S11342B02981422F50E02B813C81429FB001439FD2
S11342C0700D529F700D11249B01820F931F8D83DB
S11342D09E8320917526309176268F81882F90E0D9
S11342E0880F991F820F931F2D813E81FC0120832B
S11342F031838B819C8199231CF49195819591093B
S113430080930725909308251A8202C081E08A834E
S11343108A812796CDBFDEBFDF91CF910895CF93D9
S1134320DF9300D0CDB7DEB719821A820E945320E2
S113433019823DC01A8235C080E293E0FC01858178
S1134340882F90E081709927892BB1F380E293E064
S113435040917526509176262981222F30E0220F34
S1134360331F240F351FF90120813181FC01208F77
S1134370318F0E94742000008091052590910625BC
S1134380892BD1F389810E94FC20882321F48A811E
S11343908F5F8A8302C08AE08A8310920525109277
S11343A006258A818A3044F289818F5F89838981D5
S11343B0803108F4BFCF1092742600000F900F9044
S11343C0DF91CF910895CF93DF93CDB7DEB700008F
S11343D0DF91CF910895CF93DF931F92CDB7DEB7CE
S11343E080E09BE0FC01108280E09BE027E239E062
S11343F0FC0126A337A380E09BE0FC0110A211A2DC
S113440080E09BE021E0FC01268380E09BE0FC014E
S11344101182198232C08981882F90E0880F991FF8
S1134420875F9A4D23EE31E2FC0120833183898139
S1134430882F90E0880F991F880F991F875D9A4DE8
S1134440FC0110821182128213828981882F90E0EC
S113445087599A4DFC0110828981882F90E0880F3A
S1134460991F880F991F87589A4DFC011082118259
S11344701282138289818F5F89838981803158F206
S113448080E09BE027E0FC01208300000F90DF9197
S1134490CF910895CF93DF9300D01F92CDB7DEB7AD
S11344A08A839B83198222C08981882F90E087594F
S11344B09A4DFC0180818823B1F48981882F90E092
S11344C0880F991F875F9A4D2A813B81FC012083C5
S11344D031838981882F90E087599A4D21E0FC012E
S11344E02083898107C089818F5F89838981803195
S11344F0D8F28FEF2396CDBFDEBFDF91CF91089521
S1134500CF93DF931F92CDB7DEB789838981803142
S113451098F48981882F90E087599A4DFC01108284
S11345208981882F90E0880F991F875F9A4D23EE29
S113453031E2FC012083318300000F90DF91CF91A1
S11345400895CF93DF9300D0CDB7DEB789836A8314
S11345508A81882F90E0092E000CAA0BBB0B40E047
S113456050E02FE030E0841B950B2817390708F43E
S113457026C38C599E4FFC010C94B1508981882F1D
S113458090E087599A4D21E0FC0120838981882F8E
S113459090E0880F991F880F991F875D9A4DFC0141
S11345A010821182128213828981882F90E0880FF1
S11345B0991F880F991F9C0127583A4D80E49EE764
S11345C0A5E0B0E0F90180839183A283B38389815C
S11345D0882F90E087599A4D22E0FC012083EEC297
S11345E08981882F90E087599A4D21E0FC0120832E
S11345F08981882F90E0880F991F880F991F875D04
S11346009A4DFC0110821182128213828981882FB3
S113461090E0880F991F880F991F9C0127583A4DE5
S113462080EA9CE8A0E0B0E0F90180839183A28352
S1134630B3838981882F90E087599A4D22E0FC0149
S11346402083BCC28981882F90E087599A4D21E04C
S1134650FC0120838981882F90E0880F991F880F9F
S1134660991F875D9A4DFC01108211821282138278
S11346708981882F90E0880F991F880F991F9C01CA
S113468027583A4D80E596E4A0E0B0E0F901808334
S11346909183A283B3838981882F90E087599A4DAF
S11346A022E0FC0120838AC28981882F90E0875907
S11346B09A4D21E0FC0120838981882F90E0880FA6
S11346C0991F880F991F875D9A4DFC0110821182F2
S11346D0128213828981882F90E0880F991F880F96
S11346E0991F9C0127583A4D80EB94E0A0E0B0E07C
S11346F0F90180839183A283B3838981882F90E019
S113470087599A4D22E0FC01208358C28981882F61
S113471090E087599A4D21E0FC0120838981882FFC
S113472090E0880F991F880F991F875D9A4DFC01AF
S113473010821182128213828981882F90E0880F5F
S1134740991F880F991F9C0127583A4D88E592E0DC
S1134750A0E0B0E0F90180839183A283B3838981CF
S1134760882F90E087599A4D22E0FC01208326C2CD
S11347708981882F90E087599A4D21E0FC0120839C
S11347808981882F90E0880F991F880F991F875D72
S11347909A4DFC0110821182128213828981882F22
S11347A090E0880F991F880F991F9C0127583A4D54
S11347B08FE090E0A0E0B0E0F90180839183A283D0
S11347C0B3838981882F90E087599A4D22E0FC01B8
S11347D02083F4C18981882F90E087599A4D21E084
S11347E0FC0120838981882F90E0880F991F880F0E
S11347F0991F875D9A4DFC011082118212821382E7
S11348008981882F90E0880F991F880F991F9C0138
S113481027583A4D8AE090E0A0E0B0E0F9018083A7
S11348209183A283B3838981882F90E087599A4D1D
S113483022E0FC012083C2C18981882F90E087593E
S11348409A4D21E0FC0120838981882F90E0880F14
S1134850991F880F991F875D9A4DFC011082118260
S1134860128213828981882F90E0880F991F880F04
S1134870991F9C0127583A4D84E190E0A0E0B0E0F4
S1134880F90180839183A283B3838981882F90E087
S113489087599A4D22E0FC01208390C18981882F99
S11348A090E087599A4D21E0FC0120838981882F6B
S11348B090E0880F991F880F991F875D9A4DFC011E
S11348C010821182128213828981882F90E0880FCE
S11348D0991F880F991F9C0127583A4D82E390E055
S11348E0A0E0B0E0F90180839183A283B38389813E
S11348F0882F90E087599A4D22E0FC0120835EC105
S11349008981882F90E087599A4D21E0FC0120830A
S11349108981882F90E0880F991F880F991F875DE0
S11349209A4DFC0110821182128213828981882F90
S113493090E0880F991F880F991F9C0127583A4DC2
S11349408CE291E0A0E0B0E0F90180839183A2833E
S1134950B3838981882F90E087599A4D22E0FC0126
S113496020832CC18981882F90E087599A4D21E0BA
S1134970FC0120838981882F90E0880F991F880F7C
S1134980991F875D9A4DFC01108211821282138255
S11349908981882F90E0880F991F880F991F9C01A7
S11349A027583A4D86E090E0A0E0B0E0F90180831A
S11349B09183A283B3838981882F90E087599A4D8C
S11349C022E0FC012083FAC08981882F90E0875976
S11349D09A4D21E0FC0120838981882F90E0880F83
S11349E0991F880F991F875D9A4DFC0110821182CF
S11349F0128213828981882F90E0880F991F880F73
S1134A00991F9C0127583A4D85E090E0A0E0B0E062
S1134A10F90180839183A283B3838981882F90E0F5
S1134A2087599A4D22E0FC012083C8C08981882FD0
S1134A3090E087599A4D21E0FC0120838981882FD9
S1134A4090E0880F991F880F991F875D9A4DFC018C
S1134A5010821182128213828981882F90E0880F3C
S1134A60991F880F991F9C0127583A4D82E090E0C6
S1134A70A0E0B0E0F90180839183A283B3838981AC
S1134A80882F90E087599A4D22E0FC01208396C03C
S1134A908981882F90E087599A4D21E0FC01208379
S1134AA08981882F90E0880F991F880F991F875D4F
S1134AB09A4DFC0110821182128213828981882FFF
S1134AC090E0880F991F880F991F9C0127583A4D31
S1134AD081E090E0A0E0B0E0F90180839183A283BB
S1134AE0B3838981882F90E087599A4D22E0FC0195
S1134AF0208364C08981882F90E087599A4D21E0F2
S1134B00FC0120838981882F90E0880F991F880FEA
S1134B10991F875D9A4DFC011082118212821382C3
S1134B208981882F90E0880F991F880F991F9C0115
S1134B3027583A4D86E990E0A0E0B0E0F90180837F
S1134B409183A283B3838981882F90E087599A4DFA
S1134B5022E0FC01208332C08981882F90E08759AC
S1134B609A4D21E0FC0120838981882F90E0880FF1
S1134B70991F880F991F875D9A4DFC01108211823D
S1134B80128213828981882F90E0880F991F880FE1
S1134B90991F9C0127583A4D88E293E2A0E0B0E0C7
S1134BA0F90180839183A283B3838981882F90E064
S1134BB087599A4D22E0FC01208300000000000088
S1134BC00F900F90DF91CF910895CF93DF931F92B1
S1134BD0CDB7DEB789838981882F90E087599A4DB4
S1134BE021E0FC01208300000F90DF91CF91089514
S1134BF01F920F9200903F000F92112400903B00EF
S1134C000F922F933F934F935F936F937F938F9361
S1134C109F93AF93BF93EF93FF93CF93DF931F9231
S1134C20CDB7DEB780E09BE0FC01108280E09BE022
S1134C30FC0110A211A219825FC08981882F90E023
S1134C4087599A4DFC018081823009F052C08981D4
S1134C50282F30E0C901880F991F880F991F875D9D
S1134C609A4DFC0180819181A281B3810196A11D9D
S1134C70B11D220F331F220F331F275D3A4DF90157
S1134C8080839183A283B3838981882F90E0880FE6
S1134C90991F880F991F875D9A4DFC0120813181EE
S1134CA0428153818981882F90E0880F991F880F52
S1134CB0991F87589A4DFC0180819181A281B3810B
S1134CC0281739074A075B07A0F08981882F90E0ED
S1134CD087599A4D21E0FC0120838981882F90E037
S1134CE0880F991F875F9A4DFC0180819181FC0197
S1134CF0099589818F5F89838981803108F49DCFEB
S1134D0080E09BE027E0FC01208300000F90DF910E
S1134D10CF91FF91EF91BF91AF919F918F917F912F
S1134D206F915F914F913F912F910F9000923B00B3
S1134D300F9000923F000F901F901895CF93DF9330
S1134D4000D0CDB7DEB789836A838091AC228823F3
S1134D5009F41A828981882F90E08130910509F441
S1134D60F7C0823091051CF4892B49F041C282308E
S1134D70910509F491C1039709F49CC039C28A8151
S1134D808823A1F588EC92E38093B9259093BA2502
S1134D9080911D2690911E26892B69F48CE390E066
S1134DA08093BB259093BC2586E490E08093BD2539
S1134DB09093BE250CC084E090E08093BB25909333
S1134DC0BC2588E290E08093BD259093BE25809118
S1134DD02F26909130268093BF259093C02588EC90
S1134DE090E08093C1259093C22558C08091AC2255
S1134DF0882309F453C088EC92E38093B9259093F7
S1134E00BA2580911D2690911E26892BC9F48CE326
S1134E1090E08093BB259093BC2586E490E080933A
S1134E20BD259093BE258CE390E08093C525909397
S1134E30C62586E490E08093C7259093C82518C0C2
S1134E4084E090E08093BB259093BC2588E290E0B9
S1134E508093BD259093BE2584E090E08093C52582
S1134E609093C62588E290E08093C7259093C82547
S1134E7080912F26909130268093BF259093C02552
S1134E8088EC90E08093C1259093C22580913126CF
S1134E90909132268093C9259093CA2520911D268E
S1134EA030911E268091332690913426B9010E94B8
S1134EB0032A9EC18A81882309F095C188EC92E374
S1134EC08093B9259093BA2580911D2690911E2632
S1134ED0892BC1F482E090E08093BB259093BC259C
S1134EE086E490E08093BD259093BE2520911D26F5
S1134EF030911E268091332690913426B9010E9468
S1134F00032A17C082E090E08093BB259093BC25D0
S1134F108CEB92E08093BD259093BE2520911D26B5
S1134F2030911E268091332690913426B9010E9437
S1134F30032A80912F26909130268093BF25909349
S1134F40C02588E290E08093C1259093C2254BC18F
S1134F508A818823E9F588EC92E38093B9259093BC
S1134F60BA2580911D2690911E26892B69F487E924
S1134F7090E08093BB259093BC258CEB92E08093CA
S1134F80BD259093BE250CC085E090E08093BB25A1
S1134F909093BC2588E290E08093BD259093BE2534
S1134FA08CE090E08093BF259093C02588EC90E03E
S1134FB08093C1259093C22520911D2630911E26F1
S1134FC080911F2690912026B9010E94032A0DC1C9
S1134FD08091AC22882309F408C188EC92E3809381
S1134FE0B9259093BA2580911D2690911E26892B70
S1134FF0C9F487E990E08093BB259093BC258CEBA2
S113500092E08093BD259093BE2587E990E080933C
S1135010C5259093C6258CEB92E08093C725909389
S1135020C82518C085E090E08093BB259093BC25EB
S113503088E290E08093BD259093BE2585E090E0C2
S11350408093C5259093C62588E290E08093C72578
S11350509093C82580912F26909130268093BF2568
S11350609093C02588EC90E08093C1259093C2254D
S113507080913126909132268093C9259093CA2538
S113508020911D2630911E2680911F269091202666
S1135090B9010E94032AA9C08A81882309F03FC06C
S11350A088EC92E38093B9259093BA2580911D26CC
S11350B090911E26892B69F487E990E08093BB25A3
S11350C09093BC2586E490E08093BD259093BE2503
S11350D00CC085E090E08093BB259093BC2588E2CA
S11350E090E08093BD259093BE2580912F269091CA
S11350F030268093BF259093C02588EC90E0809360
S1135100C1259093C22520911D2630911E268091A1
S11351101F2690912026B9010E94032A68C080911D
S1135120AC22882309F463C088EC92E38093B92508
S11351309093BA2580911D2690911E26892BC9F43F
S113514087E990E08093BB259093BC2586E490E0AA
S11351508093BD259093BE2586E490E08093C52579
S11351609093C62586E490E08093C7259093C82544
S113517018C085E090E08093BB259093BC2588E21D
S113518090E08093BD259093BE2585E090E08093C8
S1135190C5259093C62588E290E08093C725909317
S11351A0C82580912F26909130268093BF25909317
S11351B0C02588EC90E08093C1259093C22580910E
S11351C03126909132268093C9259093CA25209147
S11351D01D2630911E2680911F2690912026B9010C
S11351E00E94032A04C0000003C0000001C00000A4
S11351F000000F900F90DF91CF910895CF93DF932C
S113520000D0CDB7DEB78A838A818930F8F48A81E9
S1135210882F90E0880F991F8D599E4DFC01808145
S1135220918180937526909376268A81882F90E0C9
S1135230880F991F8B569D4DFC018081918180932D
S1135240AC269093AD2681E089830DC083E490E27F
S1135250809375269093762685E791E28093AC2619
S11352609093AD26198289810F900F90DF91CF9191
S11352700895CF93DF9300D0CDB7DEB789839A83A7
S113528089819A81892B51F463E08CEF98EA0E941A
S1135290184510921D2610921E2619C089819A81E4
S11352A0019761F465E08CE792E90E94184581E07A
S11352B090E080931D2690931E2609C065E088E542
S11352C090E30E94184510921D2610921E2600009D
S11352D00F900F90DF91CF910895CF93DF93CDB7C7
S11352E0DEB72897CDBFDEBF8B839C836D837E831F
S11352F04F8328878091AC22882399F18D819E81E8
S1135300892BC1F080EC93E089839A838B819C8103
S11353109C012E5F3F4F89819A81289FF001299F2C
S1135320F00D389FF00D112440E067E0CF010E949A
S1135330B14517C080E091E089839A838B819C8179
S11353409C012F5F3F4F89819A81289FF001299FFB
S1135350F00D389FF00D112440E065E0CF010E946C
S1135360B14500002896CDBFDEBFDF91CF910895EF
S1135370CF93DF9300D01F92CDB7DEB78B838B81A1
S1135380882329F01092CF251092D02535C0809122
S11353901D2690911E26892BC1F419821A820E941F
S11353A0055124E833E0B9010E947B5089839A8334
S11353B089819A81845D9E4F89839A8389819A81A8
S11353C08093CF259093D02517C019821A820E940A
S11353D0055120EE3EE2B9010E947B5089839A83F5
S11353E089819A81845D9E4F89839A8389819A8178
S11353F08093CF259093D02500002396CDBFDEBFA8
S1135400DF91CF910895CF93DF93CDB7DEB7259782
S1135410CDBFDEBF8A839B836C837D838A819B811E
S11354204B97E0F58C819D81892BE1F48A819B81E6
S1135430089760F080E496E020E2FC01268380E394
S113544090E08093A7229093A82217C080E496E06E
S113545020E2FC0125838FE390E08093A7229093C0
S1135460A8220BC080E496E020E2FC0125838FE3B0
S113547090E08093A7229093A8228A818093D225DA
S11354808A819B81880F991F895F9F4DFC018081D0
S113549091810E94610881E0898301C01982898118
S11354A02596CDBFDEBFDF91CF910895CF93DF93D3
S11354B000D01F92CDB7DEB789836A834B8389817D
S11354C0882F90E08130910509F4A0C082309105C5
S11354D01CF4892B49F09FC08230910509F47DC0EA
S11354E0039709F476C097C08091D325882309F0E7
S11354F08FC08B810E949D031092042080911D26F1
S113550090911E26892BA9F4809111269091122640
S1135510892B11F0109204208FE090E08093BF2536
S11355209093C02580EF90E08093BB259093BC2599
S11355300CC08CE090E08093BF259093C02587E059
S113554090E08093BB259093BC2520911D2630913B
S11355501E2680911F2690912026B9010E94032ABD
S11355608091A9228F3F31F482E39BE20E944A2278
S11355708093A9228091A922803108F049C08091AA
S11355801D2690911E26892B91F4809111269091CD
S11355901226892B31F48091A92268E00E94A1226D
S11355A037C08091A92261E00E94A12231C080917C
S11355B0112690911226892B31F48091A92268E05A
S11355C00E94A12225C08091A92261E00E94A1220B
S11355D01FC08B810E949D031EC08B810E949D036E
S11355E0109204208091AB228F3F31F48DEE9BE228
S11355F00E944A228093AB228091AB22803150F4E6
S11356008091AB2261E00E94A12204C0000003C08B
S1135610000001C0000000002396CDBFDEBFDF9173
S1135620CF910895CF93DF93CDB7DEB70E94E904FD
S11356300000DF91CF910895CF93DF93CDB7DEB70C
S11356400E94D9048091112690911226282F8091CE
S1135650252690912626622F0E949E260000DF9127
S1135660CF910895CF93DF931F92CDB7DEB7198200
S113567081E08093D32520911D2630911E268091B0
S1135680332690913426B9010E94032A80911D2665
S113569090911E26892B39F48CE390E08093BB25EE
S11356A09093BC250EC084E090E08093BB2590933A
S11356B0BC2580912F26909130268093BF2590930E
S11356C0C0251092D1258091A9220E9480228FEFBB
S11356D08093A92282E00E94F70780912526909169
S11356E02626029731F0809125269091262601974F
S11356F059F420911D2630911E2680911F269091E9
S11357002026B9010E94032A80E096E0FC018085EE
S113571089838981882F90E088709927892BC9F41F
S11357200E949B4580E896E021E0FC01258305C0AA
S113573080E096E0FC01808589838981882F90E050
S113574088709927892BA1F380E896E021E0FC0179
S1135750268380E00E94F7078091AA228F3F49F4B4
S113576087EC9BE20E944A228093AA2281E08093E4
S1135770E1258091AA22803128F48091AA2262E056
S11357800E94A12200000F90DF91CF910895CF9342
S1135790DF93CDB7DEB780912F269091302680938A
S11357A0BF259093C0258091AA220E9480228FEF6A
S11357B08093AA221092D3258091E125882349F071
S11357C08091AD226EE00E94A1228BE29DE30E94B3
S11357D0D71B0000DF91CF910895CF93DF93CDB70E
S11357E0DEB781E0809304208091AB220E94802266
S11357F08FEF8093AB220000DF91CF9108951F9229
S11358000F9200903F000F92112400903B000F92E2
S11358102F933F934F935F936F937F938F939F93B4
S1135820AF93BF93EF93FF93CF93DF93CDB7DEB7DF
S11358300E949B458091CE22882381F48091072683
S1135840882361F08091E025882341F48091292602
S113585090912A26892B11F40E9440451092F82534
S11358600000DF91CF91FF91EF91BF91AF919F9194
S11358708F917F916F915F914F913F912F910F90F5
S113588000923B000F9000923F000F901F901895DC
S11358901F920F9200903F000F92112400903B0042
S11358A00F922F933F934F935F936F937F938F93B5
S11358B09F93AF93BF93EF93FF93CF93DF931F9285
S11358C0CDB7DEB719828091292690912A26892B9B
S11358D009F08AC082E390E00E9439398F3F39F49D
S11358E080911B2690911C26892B09F47DC085E0AC
S11358F08093B3260E949B450E9433020E94570264
S11359000E94750260E080E00E94183760E081E048
S11359100E94183760E082E00E94183782E00E94FB
S1135920F7078091252690912626029731F08091E1
S1135930252690912626019761F420911D26309109
S11359401E2680911F2690912026B9010E94032AC9
S11359500BC020911D2630911E26809133269091F4
S11359603426B9010E94032A80E096E0FC01808578
S113597089838981882F90E088709927892BD9F4AD
S11359800E949B4580E896E021E0FC01258305C048
S113599080E096E0FC01808589838981882F90E0EE
S11359A088709927892BA1F380E896E021E0FC0117
S11359B026831092742681E08093072681E08093E9
S11359C0D5250E94122B80E096E0FC018085898316
S11359D08981882F90E088709927892B19F00E947B
S11359E0794502C00E949B4500000F90DF91CF9142
S11359F0FF91EF91BF91AF919F918F917F916F91A3
S1135A005F914F913F912F910F9000923B000F9027
S1135A1000923F000F901F9018951F920F920090D4
S1135A203F000F92112400903B000F922F933F935D
S1135A304F935F936F937F938F939F93AF93BF9392
S1135A40EF93FF93CF93DF93CDB7DEB780E696E075
S1135A5020E636E0F90122852D7FFC012287809122
S1135A60252690912626019709F4AEC18091CE2275
S1135A70882309F0A9C180911D2690911E26892BA7
S1135A8069F480917426882349F080910420882346
S1135A9029F0809174268150809374268091F92591
S1135AA0882309F08DC08091FA25882309F088C0E5
S1135AB08091E2259091E325A091E425B091E5251C
S1135AC0892B8A2B8B2B89F18091E2259091E325F8
S1135AD0A091E425B091E5259C01AD012F5F3F4FD6
S1135AE04F4F5F4F8091FB259091FC25A091FD25A0
S1135AF0B091FE25281739074A075B07B1F02091BA
S1135B00E2253091E3254091E4255091E5258091EB
S1135B10FB259091FC25A091FD25B091FE25281729
S1135B2039074A075B0709F03FC08091FB25909134
S1135B30FC25A091FD25B091FE258093E22590934C
S1135B40E325A093E425B093E5251092DB2580910D
S1135B50E6258F5F8093E6259091E6258091DD25EB
S1135B60891768F51092E6251092E2251092E32534
S1135B701092E4251092E5251092FB251092FC2545
S1135B801092FD251092FE251092E1258091AD2200
S1135B906EE00E94A122809125269091262640E065
S1135BA060E00E94562A0BC01092E6251092E2256E
S1135BB01092E3251092E4251092E52505C104C155
S1135BC08091F925882309F480C08091E72590917C
S1135BD0E825A091E925B091EA25892B8A2B8B2B06
S1135BE081F18091E7259091E825A091E925B09174
S1135BF0EA259C01AD012F5F3F4F4F4F5F4F8091CE
S1135C00FF2590910026A0910126B0910226281725
S1135C1039074A075B07A9F02091E7253091E82569
S1135C204091E9255091EA258091FF259091002625
S1135C30A0910126B0910226281739074A075B076D
S1135C40C9F58091FF2590910026A0910126B0917D
S1135C5002268093E7259093E825A093E925B09345
S1135C60EA251092DB258091E6258F5F8093E62557
S1135C709091E6258091DD25891708F0A5C0109242
S1135C80E6251092E7251092E8251092E925109256
S1135C90EA251092FF2510920026109201261092F8
S1135CA00226809125269091262640E060E00E94FD
S1135CB0562A8AC01092E6251092E7251092E8250C
S1135CC01092E9251092EA257FC08091EB259091EE
S1135CD0EC25A091ED25B091EE25892B8A2B8B2BF9
S1135CE081F18091EB259091EC25A091ED25B09167
