S00E00004861666E6F6E2E73726563BC
S11300000C949F010C94BE010C94BE010C94BE018F
S11300100C94BE010C94BE010C94BE010C94BE0160
S11300200C94BE010C94BE010C945D280C94BE018A
S11300300C94BE010C94BE010C94BE010C94BE0140
S11300400C94BE010C94BE010C94BE010C94BE0130
S11300500C9414250C94BE010C94BE010C94BE01A6
S11300600C94BE010C94BE010C94BE010C94BE0110
S11300700C94BE010C94BE010C94BE010C94BE0100
S11300800C94BE010C94BE010C94BE010C94BE01F0
S11300900C94BE010C94BE010C94BE010C94BE01E0
S11300A00C94BE010C94BE010C94BE010C94FC187B
S11300B00C94BE010C94BE010C94BE010C947724E4
S11300C00C94BE010C9497230C94F8230C94882769
S11300D00C94D0270C94BE010C94BE010C94BE0168
S11300E00C94BE010C94BE010C94BE010C94BE0190
S11300F00C94BE010C94BE010C94BE010C94BE0180
S11301000C948B190C94BE010C94BE180C94BE0173
S11301100C94BE010C94BE010C94BE010C94BE015F
S11301200C94BE010C94BE010C94BE010C94BE014F
S11301300C94BE010C9486120C94BE010C94BE0166
S11301400C94BE010C94BE010C94BE010C94BE012F
S11301500C94BE010C94BE010C94BE010C94BE011F
S11301600C94BE010C94BE010C94BE010C94BE010F
S11301700C94BE010C94BE010C94BE010C94BE01FF
S11301800C94BE010C94BE010C94BE010C94BE01EF
S11301900C94BE010C94BE010C94BE010C94BE01DF
S11301A00C94BE010C94BE010C94BE010C94BE01CF
S11301B00C94AC140C94BE010C94BE010C94BE01BE
S11301C00C94BE010C94BE010C94BE010C94BE01AF
S11301D00C94BE010C94BE010C94BE010C94BE019F
S11301E00C94BE010C94BE010C94BE010C94BE018F
S11301F00C94BE010C94BE010C94BE01B409A70971
S1130200B409C409A709B409C409A709A709A70916
S1130210A709C4093D0A530AB409D709300E300EA0
S1130220DD0BFB0B190C370C550C5A0C5F0C640CD2
S1130230820CA00CDC0C300EFA0C180D1D0D220DD6
S11302402A0E300E300E270D450D300E630D810D34
S11302509F0DBD0DBE0CC30DCA0D230ECD0DDB0DC0
S1130260E90DF70D050E1C0EC00D300E300E300ECC
S1130270250E8A0F930F9E0FAD0FBC0FCB0F4011AD
S113028040114011DA0FE90FF80F16102510701005
S1130290401140117F104011401191109910A81085
S11302A04011B710C610D51040110710401140116D
S11302B040114011401140114011401140114011B2
S11302C04011E610FB104011061451146F14F7137B
S11302D0AC13D913E81342146014CA13331424144E
S11302E0BB137E1415148D14411B4A1B591B6C1B24
S11302F07B1B8A1B901B961B9C1BA21BA81BAE1B63
S1130300B41BF71BF71BF71BF71B4F29542957295D
S11303105C29612966296B2970297529B629BB29AD
S1130320F029F029F029F029C029C529CA29CF29A3
S1130330D529D929DE29E129E629EB297A291124AD
S11303401FBECFEFCDBFDFE2DEBF12E2A0E0B0E21E
S1130350EAE2F2E600E00BBF02C007900D92A03D76
S1130360B107D9F726E2A0EDB2E201C01D92AD3B80
S1130370B207E1F70E94FC1B0C9413310C940000AB
S1130380E0E0F6E080E2868380E8858380E486838B
S11303900895E0E0F6E080E2858380E8868380E4E7
S11303A085830895E0E0F6E080E2868380E8858333
S11303B080E485830895E0E0F6E080E2858380E8C8
S11303C0868380E486830895E0E0F6E080E2868315
S11303D080E8868380E485830895E0E0F6E080E2A7
S11303E0858380E8858380E4858308958091D12284
S11303F0882329F00E94ED011092D12205C00E94A9
S1130400D20181E08093D12261E08091D6220C94C4
S11304109B138091D022882329F00E94ED01109231
S1130420D02205C00E94C90181E08093D02261E0FE
S11304308091D5220C949B1384E0809366060895E2
S113044080918C22882319F081E0809365060895B9
S113045080918C22882319F081E0809366060895A8
S113046081E08093062060E080E00E94022160E049
S113047081E00E94022160E082E00E9402210E9449
S1130480ED0184E0809366060E9428028091D422C4
S1130490833011F40E94C90180910B2590910C25A1
S11304A08F3F910530F4019680930B2590930C2592
S11304B004C010920B2510920C258091FB258130ED
S11304C079F4809189220E94A51483E08093FE250B
S11304D060910E25662321F0809189220C949B1350
S11304E0089590918C22992349F0811104C080E8E9
S11304F08093A606089580E88093A50608951F9327
S1130500CF93DF93182FD62FC42F84E080936606F1
S11305108093610680918C22882329F081E0809366
S113052066068093610680E2809305068093010647
S113053080E8809305068093010680E48093050695
S11305408093010680E392E00E946E138093D72289
S113055086EF91E00E946E138093D62289E092E0A8
S11305600E946E138093D5221093D422D093D32269
S1130570C13029F410920520C09304200AC081E000
S113058080930520C23019F41092042002C0809395
S11305900420DF91CF911F9108958091D7220E946A
S11305A0A5140E94ED010C94C0010E94ED018091FC
S11305B0D422833011F40C94C901089561E0809130
S11305C0D6220C949B138091D6220E94A5140E94DB
S11305D0ED018091D32281110C94C0018091D42229
S11305E0833011F40C94C901089561E08091D522FF
S11305F00C949B13CF93C82F8091D5220E94A514ED
S11306000E94ED0182E390E00E94FD218F3F49F4B6
S113061088E090E00E944629892B19F40E94DB01AE
S11306200BC0CC2319F00E94C00106C08091D422D3
S1130630833011F40E94C9018091D522CF910C948A
S11306408A138091032590910425A0910525B091EA
S11306500625AC01BD0144565109610971094139AE
S113066051406105710518F481E090E0BDC0AC0112
S1130670BD01455F514061097109443F5140610525
S1130680710518F482E090E0AFC0AC01BD01495E91
S1130690534061097109483E53406105710518F4DE
S11306A083E090E0A1C0AC01BD01415D5740610908
S11306B07109483E53406105710518F484E090E0E7
S11306C093C0AC01BD01495B5B4061097109483EBF
S11306D053406105710518F485E090E085C0AC01D4
S11306E0BD01415A5F4061097109483E53406105AB
S11306F0710518F486E090E077C0AC01BD0149585B
S1130700534161097109483E53406105710518F46C
S113071087E090E069C0AC01BD01415757416109D0
S11307207109483E53406105710518F488E090E072
S11307305BC0AC01BD0149555B4161097109483E8B
S113074053406105710518F489E090E04DC0AC0197
S1130750BD0141545F4161097109483E534061053F
S1130760710518F48AE090E03FC0AC01BD01495224
S1130770534261097109483E53406105710518F4FB
S11307808BE090E031C0AC01BD0141515742610999
S1130790710940325E446105710518F48CE090E003
S11307A023C0AC01BD014153554761097109403370
S11307B055476105710518F48DE090E015C0AC0152
S11307C0BD0141565A4E610971094038594A634086
S11307D0710518F48EE090E007C0813E9349A4406F
S11307E0B10530F08FE090E08093072590930825C1
S11307F00895CF93C82F8093D222811109C00E94FB
S1130800D20161E080E00E94022161E081E004C045
S11308100E94D20161E082E00E94022180910520C1
S1130820882319F084E080936506CC2319F0809125
S1130830042081110E9420028091FA258130B1F5B3
S113084020912626309127268091F725232B89F4A1
S11308508031F9F420912E2630912F262230310553
S1130860C1F480911A2690911B26892B81F06EE0A9
S11308702CC0803119F1883091F1843089F08230B4
S1130880A9F480911A2690911B26892B79F060E0B7
S11308901CC09091D42291110FC0803159F41FC013
S11308A080911A2690911B26892BF9F48091D422E9
S11308B0811102C061E009C067E007C080911A2677
S11308C090911B26892B99F26BE08091D7220E948C
S11308D09B138091FB25813009F046C008C08091AC
S11308E01A2690911B26892B11F663E0EECF809196
S11308F0FC25811136C08091092590910A258F30FD
S1130900910530F401968093092590930A2504C03B
S11309101092092510920A258091D222811102C0D9
S113092081E001C082E08093FC251092072510929B
S11309300825109203251092042510920525109283
S11309400625809189220E94A51482E08093FE25C9
S113095060910E25662341F080918922CF910C94F9
S11309609B13CF910C942103CF910895CF93DF93E0
S113097000D0CDB7DEB761E270E082E00E94FF28CC
S113098090E089839A8389819A81982F8827898323
S11309909A8360E270E082E00E94FF2829813A8114
S11309A0282B29833A8389819A81E0E0F2E08487C5
S11309B09587118280E2828383E0848388E0809338
S11309C0210281E08093200280830F900F90DF91B9
S11309D0CF910895E0E0F2E0808181608083089502
S11309E0E0E0F2E080818E7F80830895E0E0F2E031
S11309F08081846080830895E0E2F3E096E090874C
S1130A0085EC8187928783878DE0808380E481836E
S1130A1089E0828310927D261092802610924826C7
S1130A200895CF93DF93CDB7DEB76097CDBFDEBF18
S1130A3090E1E2E9F2E2DE01119601900D929A95BD
S1130A40E1F7823059F490917D26992321F0909119
S1130A507D26915001C09FE090937D2690917D2644
S1130A602091250320FFFCCF8150823020F5E1E066
S1130A70F0E0EC0FFD1FE90FF11D808120917E262F
S1130A8090917F26E22FF92FE80FF11DE80FF11D59
S1130A9080819181809338039093390380917D26DE
S1130AA08F3019F410927D260AC080917D268F5FC5
S1130AB080937D2604C01092380310923903609607
S1130AC0CDBFDEBFDF91CF9108952091250321FF93
S1130AD0FCCF80933A0390933B030895CF93DF9325
S1130AE0813208F05EC020E030E0482F50E084E01E
S1130AF071E0E8E0F0E1A2E0EA01022E02C0D5953F
S1130B00C7950A94E2F7C0FF19C0223071F018F4B7
S1130B10213041F004C0233059F0243061F0709347
S1130B20A50624C0A093A50621C08093A5061EC0D7
S1130B30E093A5061BC0F093A50618C0223071F0FF
S1130B4018F4213041F004C0233059F0243061F00E
S1130B507093A6060BC0A093A60608C08093A606B1
S1130B6005C0E093A60602C0F093A6062F5F3F4F90
S1130B702530310509F6643081F4C62F0E946E24B5
S1130B80109246088FEF80934C080E945D241092C7
S1130B900123C093B92681E005C081E08093B92682
S1130BA001C080E0DF91CF9108950F931F93CF93FD
S1130BB0DF93D82FC62F0E94B6040E94EA0486E26F
S1130BC090E00E94FD218130F9F081E08093DC22E5
S1130BD083E18093E3221092E2221092DF221092AA
S1130BE0E0221092DD221092DE221092E422109272
S1130BF0E5221092E1224AE050E06CED72E286E2D6
S1130C0090E00E94A22208C04AE050E06CED72E23B
S1130C1086E290E00E940F2200912626109127265A
S1130C2080E090E00E946A1560E082E00E94EC158A
S1130C308091322690913326892B19F01092E92263
S1130C4002C0D093E9221092E8221092E722109277
S1130C50E622C13049F050F0C23069F0C33009F5E2
S1130C6081E08093E6220AC0C093E82260E070E04D
S1130C7083E190E014C081E08093E72280912E26E6
S1130C8090912F2660E070E0039729F480913C2630
S1130C9090913D2604C080912826909129260E9497
S1130CA0C71587E080937D2681E080930123DD23AF
S1130CB059F01092DD221092DE221092E42210925A
S1130CC0E52261E080E003C061E080911C260E947F
S1130CD06E0581E08093B9260E94110587E0809318
S1130CE07D260E945724A8958091B9268430D9F78F
S1130CF00E94F00480912E2690912F2601976091F6
S1130D00262670912726029728F480912826909110
S1130D10292604C080913C2690913D260E94C71547
S1130D20C0910806C3FD0FC00E946E2481E0809329
S1130D308506C3FD03C0C0910806FBCF81E0809304
S1130D40860610927D2611270093262610932726C7
S1130D5060911A2680912E260E94EC1580912626F9
S1130D60909127260E946A1580912C2690912D2619
S1130D70892B79F08091880682FF06C080914426F1
S1130D8090914526892B39F00E94591881E080936F
S1130D90FF250E945724109201238091FF2288236B
S1130DA039F18091DD229091DE222091DA22309176
S1130DB0DB2228173907A8F4AC01421B530B9A0114
S1130DC0969587958217930760F481E090E080936D
S1130DD022269093232686E00E94351B0E94DE0281
S1130DE005C080913E206CE00E949B131092FF226C
S1130DF0DF91CF911F910F910895CF92DF92EF92DF
S1130E00FF92CF93DF9300D0CDB7DEB78091B926A0
S1130E10813009F0A5C18091D9228F5F8093D922B6
S1130E20853108F49DC18091D8228A30E8F40E946B
S1130E30F6048091060280FFFCCFE091D82281E085
S1130E408E0F8093D822F0E08091100290911102CD
S1130E50EE0FFF1FE651FD4D8083918380910602C2
S1130E608160809306027CC182E08093B92610924F
S1130E70D8221092D92219821A828091B9268230FE
S1130E8009F06EC183E08093B92620E030E060E091
S1130E9070E0CB01F901EE0FFF1FE651FD4D4081DB
S1130EA05181640F751F811D911D2F5F3F4F2A30A3
S1130EB0310581F72091E922222309F453C02AE065
S1130EC030E040E050E00E9430308091DD2290918B
S1130ED0DE226C01E12CF12C8091E522C216D306AE
S1130EE0E406F50630F42093DD223093DE2280936D
S1130EF0E4228F5F8093E522803210F463E02FC0F8
S1130F004AE050E06CED72E286E290E00E94A22298
S1130F108091DD229091DE2280931E2690931F26DD
S1130F208091E42290E080931C2690931D2642E059
S1130F3050E06CE176E288E090E00E94A2220E94F8
S1130F404F0F89839A8342E050E0BE016F5F7F4F69
S1130F5080E090E00E94A22264E08091E4220E945A
S1130F606E05FEC02091E822222319F11092E82296
S1130F702AE030E040E050E00E94303020931E260A
S1130F8030931F268091DD229091DE2296958795DD
S1130F902817390740F481E090E08093222690934B
S1130FA0232686E0B8C0109222261092232687E0DA
S1130FB0BCC02091E722222309F497C01092E722B3
S1130FC02AE030E040E050E00E94303029393840D7
S1130FD008F483C081E090E080932026909321263A
S1130FE088E00E94351B0E94DE02809128269091A1
S1130FF02926009729F00197809328269093292683
S113100020913026309131268091282690912926EE
S1131010232B29F180934026909341264697C1F4CF
S113102086E190E8809340269093412642E050E088
S113103060E476E280E190E00E94A2228091402662
S1131040909141269F7780934026909341262DC00E
S113105042E050E060E476E280E190E024C08093D6
S11310604226909343260897C1F488E090E8809341
S113107042269093432642E050E062E476E282E224
S113108090E00E94A22280912826909129269F77A1
S1131090809328269093292608C042E050E062E419
S11310A076E282E290E00E94A2220E944F0F89839E
S11310B09A8342E050E0BE016F5F7F4F80E090E092
S11310C00E94A2228091282690912926892B09F436
S11310D03FC081E08093FE223BC0109220261092F4
S11310E0212689E00E94351B33C02091E622222369
S11310F009F11092E6222AE030E040E050E00E943C
S113110030302939384060F081E090E08093202627
S11311109093212688E00E94351B0E94DE0218C0AD
S1131120109220261092212689E00E94351B0E94ED
S1131130E3020EC02AE030E040E050E00E9430308C
S113114020931E2630931F262093DA223093DB222D
S113115064E080911C260E946E0584E08093B92689
S11311600F900F90DF91CF91FF90EF90DF90CF9091
S1131170089581E080930023089581E08093FE2206
S11311800895E3E0F3E220E030E0C90148E050E0F4
S1131190BC017695679580FF06C0CB01A1E08A2744
S11311A0A0EA9A2701C0CB014150510989F78193E4
S11311B091932F5F3F4F211581E0380731F7089550
S11311C0EF92FF920F931F93CF93DF937B018A01DA
S11311D0E90180910223811105C00E94C10881E0C8
S11311E080930223D7010E0D1F1DA017B10779F0BC
S11311F08D91FE01E827FF27EE0FFF1FED5FFC4DE9
S113120080819181CD2FDD27C827D927EECFCE014C
S1131210DF91CF911F910F91FF90EF9008951F934D
S1131220CF93DF93EC01162F89818F3F21F4862F12
S11312308F7729F00DC08F7759F46F3F49F41983E4
S11312408E819F819827892798278E839F8301C049
S1131250198320E030E047E050E0BE016F5F7F4F2C
S113126081E090EA0E94E0081F3F19F4982789273B
S1131270982788879987DF91CF911F910895CF92FE
S1131280DF92EF92FF920F931F93CF93DF938C0122
S1131290F62EFC012681378181818F3F19F4322794
S11312A0232732274F3F21F48F2D8F7749F012C027
S11312B0442309F458C1403881F4FFEFFF121AC0E7
S11312C0F80184A595A598278927982784A795A729
S11312D04F3F71F48F2D8F7781F0F8018181468122
S11312E057818F3F09F022C15427452754271EC137
S11312F041110DC08FEFF812F0CF24523109D801FB
S11313009E96542F5F77FF2DFF77EF2E23C0403832
S113131089F3E3CF8D919C9111979827892798277A
S11313208D939C93119712968D919C9113974F3F97
S1131330A9F4F82FE92F98278927982712968D93D7
S11313409C931397ED012496E031F10548F0245065
S11313503109DE0112161306ECF2BFCFFC01EBCF0C
S1131360E250FF4F0C94523014968D919C91159736
S113137098278927982714968D939C931597265020
S11313803109ED012696E5CF14966D917D918D91ED
S11313909C9117970E945B3014966D937D938D9367
S11313A09C93179728503109ED012896D2CF1496B3
S11313B08D919C9115974F3F19F4F82FE92F01C097
S11313C0FC0198278927982714968D939C93159749
S11313D016968D919C9117974F3F19F4D82EC92ECC
S11313E001C06C0198278927982716968D939C93A2
S11313F01797ED01289628503109CF01419702979C
S113140028F0309719F0A0E0B0E015C0C0FE03C08A
S1131410EFEFCE1ADE0ACC0DDD1D2C193D0999CF54
S1131420E530F10599F058F4E230F10579F0E33054
S1131430F105B1F01196CA16DB0691F78ACFE630B2
S1131440F10571F0EB30F105A9F70AC088819981A3
S11314509827892798278993999322503109EACFAD
S1131460688179818A819B810E945B306993799339
S11314708993999324503109DDCF14968D919C91D1
S113148015974F3F19F4982789279827782F692FA4
S113149014966D937C93159716962650310980FD0A
S11314A00196ED013EC014966D917C9115974F3FC6
S11314B019F4962F872F01C0CB01265031090097CC
S11314C041F0121613062CF44F3F19F4EE2031F0BC
S11314D028C0511126C0FFEFFF1223C076276727CB
S11314E0762714966D937C93159716969695879503
S11314F0FD0160E070E06817790751F0C081D18187
S1131500DC27CD27DC27C193D1936F5F7F4FF3CFC7
S1131510CB01880F991F281B390BED01C80FD91F68
S113152018CFC80FD91F281B390B13CF42505109AC
S113153020E030E0B801645F7F4F81E090EA0E94D0
S1131540E0082FEFF21203C0982789279827F801A3
S113155082879387DF91CF911F910F91FF90EF9036
S1131560DF90CF900895FFEFFF12B7CEA9CEEF9290
S1131570FF920F931F93CF93DF93FC01D181D61772
S113158081F1C62F8C01E680F7800E940F09DF3FAE
S113159021F48C2F8F7761F405C08D2F8F7741F460
S11315A0CF3F59F44D2F6C2FC8010E943F0919C039
S11315B0CF3F19F4FE24EF24FE24A7014250510921
S11315C020E030E0B801645F7F4F81E090EA0E9440
S11315D0E008CF3F19F4982789279827F8018287D4
S11315E0938780E090E0DF91CF911F910F91FF905E
S11315F0EF900895CF93DF93E0914120F091422042
S113160081818F3F51F48AE290E08683978360E87A
S113161081E896E20E94B70A04C08AE290E08683D9
S11316209783C0914120D09142208FEF8A831B82FF
S11316308CA59DA590688CA79DA78C8180688C83C0
S113164084E390E08093BA269093BB26BE016C5C41
S11316507F4F20E030E047E050E081E090EA0E94D4
S1131660E00888879987C0914120D09142204E811B
S11316705F8142505109BE01645F7F4F20E030E03A
S113168081E090EA0E94E0088A879B87E0914120EC
S1131690F09142208181803829F46FEF81E896E24D
S11316A00E94B70A8091BA26DF91CF910C947223DD
S11316B0CF93DF93E0914120F0914220DF011A960D
S11316C084E2ED0119928A95E9F7A0913F20B09147
S11316D040209C968D919C919D9784A795A781818C
S11316E08F3F51F484E290E08683978360E881E839
S11316F096E20E94B70A04C084E290E0868397834E
S1131700C0914120D09142208FEF8A831B828CA507
S11317109DA590688CA79DA78C818F778C838E81E3
S11317209F810A968093BA269093BB26BE016C5C77
S11317307F4F20E030E047E050E081E090EA0E94F3
S1131740E00888879987C0914120D09142204E813A
S11317505F8142505109BE01645F7F4F20E030E059
S113176081E090EA0E94E0088A879B87E09141200B
S1131770F09142208181803829F46FEF81E896E26C
S11317800E94B70A8091BA26DF91CF910C947223FC
S11317900F931F93CF93DF93C0914120D0914220A8
S11317A01AAA1BAAEEA5FFA5FD53EB32F10508F01A
S11317B057C2E25FFE4F0C94523042E050E066E1C3
S11317C076E282E090E00E940F22E0914120F091C5
S11317D04220809116269091172682AB93AB0E94EB
S11317E0FA0A80911626909117269F7380931626E5
S11317F0909317263BC242E050E068E176E284E031
S113180090E00E940F22E0914120F09142208091CB
S113181018269091192682AB93AB0E94FA0A809104
S11318201826909119269F73809318269093192651
S11318301DC242E050E06AE176E286E090E00E9458
S11318400F22E0914120F091422080911A2690913C
S11318501B2682AB93AB0E94FA0A80911A269091C0
S11318601B269F7380931A2690931B26FFC142E088
S113187050E06CE176E288E090E00E940F22E09173
S11318804120F091422080911C2690911D2682AB2C
S113189093AB0E94FA0A80911C2690911D269F7397
S11318A080931C2690931D26E1C180911E26909161
S11318B01F26CEC18091202690912126C9C18091F6
S11318C0222690912326C4C142E050E064E276E2ED
S11318D08CE090E00E940F22E0914120F0914220A0
S11318E0809124269091252682AB93AB0E94FA0A1C
S11318F080912426909125269F738093242690938B
S11319002526B4C142E050E066E276E28EE090E043
S11319100E940F22E0914120F091422080912626DE
S11319209091272682AB93AB0E94FA0A80912626D7
S1131930909127269F73809326269093272696C1FD
S113194042E050E060E476E280E190E00E940F2201
S1131950E0914120F09142208091402690914126CF
S113196082AB93AB0E94FA0A809140269091412663
S11319709F73809340269093412678C142E050E0C3
S113198062E476E282E290E00E940F22E09141203C
S1131990F0914220809142269091432682AB93ABF2
S11319A00E94FA0A80914226909143269F73809365
S11319B04226909343265AC142E050E06AE276E21E
S11319C082E190E00E940F22E0914120F0914220B8
S11319D080912A2690912B2682AB93AB0E94FA0A1F
S11319E080912A2690912B269F7380932A26909388
S11319F02B263CC142E050E06CE276E280E290E0CB
S1131A000E940F22E0914120F091422080912C26E7
S1131A1090912D2682AB93AB0E94FA0A80912C26DA
S1131A2090912D269F7380932C2690932D261EC172
S1131A3080912E2690912F260BC180913026909173
S1131A40312606C1809132269091332601C142E0AD
S1131A5050E064E376E284E190E00E940F22E0919A
S1131A604120F0914220809134269091352682AB1A
S1131A7093AB0E94FA0A80913426909135269F7385
S1131A808093342690933526F1C042E050E066E31B
S1131A9076E286E190E00E940F22E0914120F091ED
S1131AA04220809136269091372682AB93AB0E94D8
S1131AB0FA0A80913626909137269F7380933626B2
S1131AC090933726D3C042E050E068E376E288E1A1
S1131AD090E00E940F22E0914120F09142208091F9
S1131AE038269091392682AB93AB0E94FA0A8091F2
S1131AF03826909139269F738093382690933926FF
S1131B00B5C042E050E06AE376E28AE190E00E94E8
S1131B100F22E0914120F091422080913A26909149
S1131B203B2682AB93AB0E94FA0A80913A269091AD
S1131B303B269F7380933A2690933B2697C042E0BE
S1131B4050E06CE376E28CE190E00E940F22E09199
S1131B504120F091422080913C2690913D2682AB19
S1131B6093AB0E94FA0A80913C2690913D269F7384
S1131B7080933C2690933D2679C08AE891E068C022
S1131B8080918C225EC0809192002091910090E01F
S1131B90922B5EC08091900054C069E070E082E0B6
S1131BA00E94FF28C82FD0E00091412010914220CC
S1131BB068E070E037C06BE070E082E00E94FF28CC
S1131BC0C82FD0E000914120109142206AE070E0DB
S1131BD029C06DE070E082E00E94FF28C82FD0E0A9
S1131BE000914120109142206CE070E01BC062E142
S1131BF070E082E00E94FF28C82FD0E000914120CD
S1131C001091422060E170E00DC064E170E082E078
S1131C100E94FF28C82FD0E000914120109142205B
S1131C2063E170E082E00E94FF28DC2FCC27C82B00
S1131C30F801C2ABD3AB0EC065E170E082E00E9454
S1131C40FF2890E005C080E001C082E10E94351BBE
S1131C508AAB9BABDF91CF911F910F910C94FA0A41
S1131C60DF91CF911F910F910C94580BDF91CF917D
S1131C701F910F910895CF93DF93C0914120D0918C
S1131C8042208F312DE3920709F477C0A0F5833108
S1131C90BDE39B0709F45CC087312DE3920709F08B
S1131CA0E2C024E3E1E8F6E2DF011D922A95E9F7B8
S1131CB02EE7288319828EA79FA780E096E88CA739
S1131CC09DA78AE290E08E839F838FE08A831B82A4
S1131CD08C818F778C8380EE8D8382E090E088AB5B
S1131CE099AB84E390E08093BA269093BB26BE011F
S1131CF06C5C7F4F9BC08832ADE39A0709F45DC0EA
S1131D008A32BDE39B0709F0AEC024E3E1E8F6E2C2
S1131D10DF011D922A95E9F72EE7288319822FE027
S1131D202A831B8220910D2520682C8320EE2D838D
S1131D3021E036E02CA73DA72AE230E02E833F8342
S1131D408EA79FA782E090E088AB99AB82E15DC04B
S1131D5024E3E1E8F6E2DF011D922A95E9F72EE794
S1131D6028832FE02A831B8210920D2520E82C83E0
S1131D7020EE2D8320E036E812C024E3E1E8F6E209
S1131D80DF011D922A95E9F72EE7288319822FE0B7
S1131D902A831B821C8220EE2D8321E036E02CA7AF
S1131DA03DA72AE230E02E833F838EA79FA782E0DF
S1131DB090E088AB99AB80E028C024E3E1E8F6E248
S1131DC0DF011D922A95E9F72EE7288319822FE077
S1131DD02A831B8220910D2520682C8320EE2D83DD
S1131DE020E036E82CA73DA72AE230E02E833F838B
S1131DF08EA79FA782E090E088AB99AB80914426A0
S1131E0090914526009719F4D6CF0E94351B8AABD2
S1131E109BAB84E390E08093BA269093BB26C09159
S1131E204120D0914220BE016F5F7F4F20E030E01F
S1131E3047E050E081E090EA0E94E00888879987B3
S1131E40C0914120D09142204E815F81425051097E
S1131E50BE01645F7F4F20E030E081E090EA0E94A1
S1131E60E0088A879B87E0914120F091422081819C
S1131E70811105C06FEF81E896E20E94B70A809154
S1131E800D2587FD04C08F5F80930D2502C010923D
S1131E900D258091BA26DF91CF910C947223CF93B4
S1131EA0DF93CDB7DEB7A297CDBFDEBF42E250E0ED
S1131EB0BE016F5F7F4F82E090E00E940F2220E01E
S1131EC030E042E250E0BE016F5F7F4F81E090EA74
S1131ED00E94E008A296CDBFDEBFDF91CF910895A6
S1131EE00F931F93CF93DF9300D0CDB7DEB7198242
S1131EF01A82A0913F20B09140209E96ED91FC91D2
S1131F009F97FD53EB32F10508F0BAC1E75CFE4F31
S1131F100C945230D2968D919C91D3978093122633
S1131F209093132608C0D2968D919C91D397809359
S1131F301426909315260E94FA0AA4C1D2968D9174
S1131F409C91D397809316269093172642E050E0F5
S1131F5066E176E282E090E036C1D2968D919C9162
S1131F60D397809318269093192642E050E068E1B5
S1131F7076E284E090E027C1D2968D919C91D3972C
S1131F8080931A2690931B2642E050E06AE176E2A1
S1131F9086E090E018C1D2968D919C91D39780935E
S1131FA01C2690931D2642E050E06CE176E288E026
S1131FB090E009C1D2968D919C91D3978093242669
S1131FC09093252642E050E064E276E28CE090E0D3
S1131FD0FAC0D2968D919C91D397809326269093A4
S1131FE0272642E050E066E276E28EE090E0EBC025
S1131FF0D2968D919C91D3978093402690934126BD
S113200042E050E060E476E280E190E0DCC0D29609
S11320108D919C91D397809342269093432642E0DE
S113202050E062E476E282E290E0CDC0D2968D91F7
S11320309C91D39780932A2690932B2642E050E0DC
S11320406AE276E282E190E0BEC0D2968D919C91E4
S1132050D39780933E2690933F260E94FA0A80915C
S11320603E2690913F2681309105B1F442E050E044
S11320706EE376E28EE190E00E94A2220E944F0F6E
S113208089839A8342E050E0BE016F5F7F4F80E016
S113209090E00E94A22220C00497F1F480910104F0
S11320A080FDFCCF0E9452288091010480FDFCCF6A
S11320B041E067E08FEF9FEF0E9436288091010492
S11320C080FDFCCF0E944928809108049091090466
S11320D0A8958A3F9105C0F381E080930026D2C081
S11320E0D2968D919C91D39780932C2690932D26F4
S11320F042E050E06CE276E280E290E064C0D29686
S11321008D919C91D3978093322690933326892B7B
S113211011F061E001C06FEF84E390E00E94572268
S11321200ACF6FEF82E390E00E9457220E94842B33
S113213002CFD2968D919C91D3978093342690931D
S1132140352642E050E064E376E284E190E03BC06F
S1132150D2968D919C91D39780933626909337266F
S113216042E050E066E376E286E190E02CC0D2964D
S11321708D919C91D397809338269093392642E091
S113218050E068E376E288E190E01DC0D2968D913C
S11321909C91D39780933A2690933B2642E050E05B
S11321A06AE376E28AE190E00EC0D2968D919C912A
S11321B0D39780933C2690933D2642E050E06CE315
S11321C076E28CE190E00E94A222B5CED2968D9167
S11321D09C91D39780934426909345260091412067
S11321E010914220009719F480E00E94351BF801F9
S11321F082AB93ABA0CE80918B220E948A138FEF87
S113220080938B22E0913F20F091402082A993A9F2
S113221090FF03C021E02093FA2599278093462656
S1132220909347268330910591F038F481309105DD
S113223061F00297A1F48AE00BC08530910569F042
S113224050F0069761F489E003C08DE001C086E098
S113225080930E2506C085E0FBCF8FE0F9CF109266
S11322600E2581E08093FB25809189228F3F09F020
S113227062CE89E29BE10E946E13809389225BCE39
S11322800E94580B0E944F0F89839A8342E050E0CA
S1132290BE016F5F7F4F80E090E00E94A2220F900A
S11322A00F90DF91CF911F910F910895CF92DF92FC
S11322B0EF92FF920F931F93CF93DF9384E3E9E4AC
S11322C0F6E2DF011D928A95E9F78091010480FD11
S11322D0FCCF0E9452288091010480FDFCCF41E094
S11322E067E08FEF9FEF0E94362810920026C0E02F
S11322F0D0E0809100268111B6C0A8958091010498
S113230080FDFCCF0E944928E12CF12C00E010E074
S11323100E945823F801E75BF94D80838E37B9F5A5
S113232001151105A1F58091002681113DC0CAE473
S1132330D6E2B6E2C335DB0721F00E945823899325
S1132340F8CFE0913F20F09140208181C084D18476
S1132350C681D7818F3F31F4DC24CD24DC24DC27F3
S1132360CD27DC272A96BF016F5F7F4F20E030E046
S113237047E050E081E090EA0E94E008C816D906E0
S113238009F468C087E19DE30E943B0E15C0E11487
S1132390F10409F465C00F5F1F4F043311058CF479
S11323A0EE24E394F12C08C0E114F10429F0EE24A6
S11323B0E394F12C01E010E080910026882309F4D5
S11323C0A7CFE0913F20F091402081818F3F29F4F5
S11323D060E889E496E20E94B70AE0913F20F09118
S11323E04020868197818A9751F502851385BF0124
S11323F0645F7F4F20E030E0AE014C50510981E032
S113240090EA0E94E00808171907C9F484E3E9E494
S1132410F6E2A1E8B6E201900D928A95E1F7E09127
S11324203F20F091402084A595A59F778115964083
S113243019F40E94700F07C00E94C80B04C087E102
S11324409DE30E943B0E8091010480FDFCCF0E941D
S113245052284FCFEE24E394F12C0AE010E0ACCFE5
S113246000E010E0A9CF80E0DF91CF911F910F91A0
S1132470FF90EF90DF90CF900895CF93DF9300D03B
S1132480CDB7DEB719821A8242E050E0BE016F5F19
S11324907F4F80E090E00E940F220E944F0F21E0C6
S11324A049815A814817590709F020E0822F0F907B
S11324B00F90DF91CF910895E0E8F1E083E6808307
S11324C080ED8183E0E4F9E088E0808389E283831E
S11324D080E181830895E0E4F9E010A211A2109252
S11324E0112510921225ECE4F9E08081816080834B
S11324F0ECE0F9E0808181608083E0E0F9E010A203
S113250011A282E0868381E0808308951F920F9256
S11325100FB60F9211242F938F939F9380910009EC
S1132520807F8093000980914C0980FF03C08FEF66
S11325309FEF09C0209160098091610990E0982F74
S11325408827820F911D80931125909312259F91C6
S11325508F912F910F900FBE0F901F901895E82F19
S1132560F0E0CF01880F991FE091B526F091B626CF
S1132570E80FF91F208131814091112550911225D6
S1132580241B350BB90137FF04C066277727621B6C
S1132590730B633071053CF140910F255091102568
S11325A06417750741F0A9014B5F5F4F4B3051052C
S11325B010F042E001C041E0E0917E26F0917F26D8
S11325C0E80FF91F80819181429FD001439FB00D94
S11325D011248A0F9B1F8083918360930F2570932E
S11325E0102580E0089581E00895EF92FF920F9303
S11325F01F93CF93DF930E945C12C0E0D0E00C2FB6
S11326007E01EE0CFF1C10E08091250380FFFCCFBF
S1132610E0917E26F0917F26EE0DFF1D8081918151
S113262080933803909339030E946B128091112593
S1132630909112250097F1F3802F0E94AF1281111F
S113264002C01F5F01C01AE01092112510921225DA
S11326501A30D1F62196C031D10589F610927D2623
S1132660DF91CF911F910F91FF90EF9008950895FE
S1132670CF93DF931092000B87E299E08093260BAF
S11326809093270B1092200B1092210B81E08093E2
S1132690060B1092010B83EA95E2E3E6F5E2C3E54B
S11326A0D5E263E175E227E333E1DC012D933D9349
S11326B0CD0111921192119211921992DB011D9286
S11326C01D921D921D92BD01B5E2E33AFB0769F725
S11326D087E08093000BDF91CF910895E3E5F5E265
S11326E020E030E0419141110EC0F901EE0FFF1FCF
S11326F0ED55FA4D80839183F901ED5AFA4D81E04D
S11327008083822F08952F5F3F4F2031310551F789
S11327108FEF0895803170F490E0FC01ED5AFA4D8A
S11327201082880F991FFC01ED55FA4D87E393E160
S1132730808391830895462F50E04031510508F07D
S113274003C1FA01EC59FE4F90E09C01220F331FA4
S1132750220F331F0C945230F901ED59FA4D1082B7
S1132760118212821382F901ED5EFA4D40E45EE7B4
S113277065E070E0E0C0F901ED59FA4D1082118274
S113278012821382F901ED5EFA4D40EA5CE860E0E2
S113279070E0D1C0F901ED59FA4D10821182128214
S11327A01382F901ED5EFA4D40E556E460E070E015
S11327B0C2C0F901ED59FA4D1082118212821382BE
S11327C0F901ED5EFA4D40EB54E060E070E0B3C017
S11327D0F901ED59FA4D1082118212821382F90126
S11327E0ED5EFA4D48E552E060E070E0A4C0F90106
S11327F0ED59FA4D1082118212821382F901ED5EB5
S1132800FA4D4FE050E060E070E095C0F901ED59F9
S1132810FA4D1082118212821382F901ED5EFA4D93
S11328204AE050E060E070E086C0F901ED59FA4DED
S11328301082118212821382F901ED5EFA4D44E195
S113284050E060E070E077C0F901ED59FA4D108274
S1132850118212821382F901ED5EFA4D42E350E0D7
S113286060E070E068C0F901ED59FA4D1082118200
S113287012821382F901ED5EFA4D4CE251E060E000
S113288070E059C0F901ED59FA4D1082118212829B
S11328901382F901ED5EFA4D46E050E060E070E02D
S11328A04AC0F901ED59FA4D108211821282138245
S11328B0F901ED5EFA4D45E050E060E070E03BC0A8
S11328C0F901ED59FA4D1082118212821382F90135
S11328D0ED5EFA4D42E050E060E070E02CC0F9019A
S11328E0ED59FA4D1082118212821382F901ED5EC4
S11328F0FA4D41E050E060E070E01DC0F901ED598F
S1132900FA4D1082118212821382F901ED5EFA4DA2
S113291046E950E060E070E00EC0F901ED59FA4D6F
S11329201082118212821382F901ED5EFA4D48E29F
S113293053E260E070E04083518362837383FC015F
S1132940ED5AFA4D22E020830895E82FF0E0ED5A85
S1132950FA4D81E0808308951F920F920FB60F9273
S113296011240BB60F92BF92CF92DF92EF92FF9297
S11329700F931F932F933F934F935F936F937F9383
S11329808F939F93AF93BF93CF93DF93EF93FF9373
S11329901092000B1092200B1092210BC3E5D5E28C
S11329A083EAC82E85E2D82E03E615E293E1E92EE8
S11329B095E2F92EBB24B39488818230D9F4F801CE
S11329C080819181A281B3810196A11DB11D808373
S11329D09183A283B383F701408151816281738122
S11329E084179507A607B70728F0B882D601ED919A
S11329F0FC9109952196B2E0CB0ED11C0C5F1F4FC0
S1132A00E4E0EE0EF11CF5E2C336DF07A9F687E039
S1132A108093000BFF91EF91DF91CF91BF91AF9124
S1132A209F918F917F916F915F914F913F912F91E2
S1132A301F910F91FF90EF90DF90CF90BF900F9078
S1132A400BBE0F900FBE0F901F90189581E08093DE
S1132A500620809143200E948A138FEF80934320A5
S1132A60089580913826909139268093CC259093AF
S1132A70CD25809144200E948A138FEF80934420B7
S1132A801092C32508958930B8F490E0880F991FF7
S1132A90FC01E354FD4D2081318120937E26309347
S1132AA07F26FC01E555FD4D808191818093B526FB
S1132AB09093B62681E0089588E692E280937E267C
S1132AC090937F2688E491E28093B5269093B6266E
S1132AD080E00895CF93DF93EC01009721F463E045
S1132AE082E09DE00EC065E0019749F48CE792E92D
S1132AF00E944B24C0932626D093272608C088E53D
S1132B0090E30E944B241092262610922726DF91F0
S1132B10CF9108959C0180918C228823C1F0672B6A
S1132B2079F02E5F3F4F40E067E080EC93E0FC01DA
S1132B302E9FC0012F9F900D3E9F900D112405C024
S1132B4040E065E080E091E0920F0C94362808950F
S1132B50882329F01092DC251092DD2508958091B8
S1132B60262690912726892B29F40E94AD3064E80B
S1132B7073E004C00E94AD3060EE7EE20E941C301F
S1132B80845D9E4F8093DC259093DD2508958B31E1
S1132B90910500F520E2672B41F48830910528F077
S1132BA02093460623E030E004C02093450624E049
S1132BB030E020934620309347208093C425880F2B
S1132BC0991FFC01E95FFF4D808191810E94650599
S1132BD081E0089580E0089590918C22992309F46E
S1132BE08CC1813009F4C0C038F0823009F4FFC0D0
S1132BF0833009F480C00895611130C088EC92E3F9
S1132C008093C6259093C7258091262690912726E8
S1132C10892B49F48CE390E08093C8259093C925CF
S1132C2086E490E008C084E090E08093C825909307
S1132C30C92588E290E08093CA259093CB258091A2
S1132C403826909139268093CC259093CD2588EC15
S1132C5090E08093CE259093CF2544C080918C2220
S1132C60882309F43FC088EC92E38093C6259093AF
S1132C70C7258091262690912726892B49F42CE399
S1132C8030E02093C8253093C92586E490E008C03D
S1132C9024E030E02093C8253093C92588E290E0F1
S1132CA08093CA259093CB252093D2253093D325A6
S1132CB08093D4259093D5258091382690913926F8
S1132CC08093CC259093CD2588EC90E08093CE25FD
S1132CD09093CF2580913A2690913B268093D625D8
S1132CE09093D725609126267091272680913C26C3
S1132CF090913D2600C161110BC188EC92E3809351
S1132D00C6259093C7256091262670912726809129
S1132D103C2690913D2622E030E02093C825309354
S1132D20C9256115710549F426E430E02093CA25CC
S1132D303093CB2560E070E006C02CEB32E02093AA
S1132D40CA253093CB250E94C715809138269091CF
S1132D5039268093CC259093CD2588E290E080930A
S1132D60CE259093CF250895611125C088EC92E378
S1132D708093C6259093C7256091262670912726B7
S1132D806115710549F487E990E08093C825909313
S1132D90C9258CEB92E008C085E090E08093C825BB
S1132DA09093C92588E290E08093CA259093CB251F
S1132DB08CE090E044C080918C22882309F4A8C060
S1132DC088EC92E38093C6259093C72560912626CC
S1132DD0709127266115710509F05FC027E930E07D
S1132DE02093C8253093C9258CEB92E05EC0611115
S1132DF031C088EC92E38093C6259093C7256091F7
S1132E002626709127266115710549F487E990E01B
S1132E108093C8259093C92586E490E008C085E096
S1132E2090E08093C8259093C92588E290E0809330
S1132E30CA259093CB25809138269091392680938A
S1132E40CC259093CD2588EC90E08093CE2590936B
S1132E50CF254DC080918C22882309F459C088EC79
S1132E6092E38093C6259093C7256091262670919E
S1132E7027266115710589F487E990E08093C825B8
S1132E809093C92586E490E08093CA259093CB253E
S1132E908093D2259093D32510C025E030E0209371
S1132EA0C8253093C92588E290E08093CA25909381
S1132EB0CB252093D2253093D3258093D42590938A
S1132EC0D52580913826909139268093CC259093EE
S1132ED0CD2588EC90E08093CE259093CF258091EA
S1132EE03A2690913B268093D6259093D7258091BE
S1132EF02826909129260C94C715813009F436CFE1
S1132F0008F47CCE823009F474CF833009F4F5CE12
S1132F100895CF9381E08093C32560912626709114
S1132F20272680913C2690913D260E94C7158091CA
S1132F30262690912726892B39F48CE390E0809300
S1132F40C8259093C9250EC084E090E08093C825DD
S1132F509093C92580913826909139268093CC2569
S1132F609093CD251092C525809145200E948A1307
S1132F708FEF8093452082E00E94110580912E26D8
S1132F8090912F260197029750F460912626709114
S1132F90272680912826909129260E94C715C09142
S1132FA00806C3FD0DC00E946E2481E0809385064F
S1132FB0C3FD03C0C0910806FBCF81E08093860661
S1132FC080E00E941105809144208F3F31F481E319
S1132FD095E10E946E1380934420809144208031B7
S1132FE020F462E0CF910C949B13CF910895982F15
S1132FF0842F923009F447C0933009F442C09111F0
S113300057C09091C325911153C00E94F9031092A7
S1133010062060912626709127266115710549F4D2
S11330208FE090E08093CC259093CD2580EF90E0C5
S113303008C08CE090E08093CC259093CD2587E068
S113304090E08093C8259093C9258091282690917B
S113305029260E94C715809145208F3F31F489E8C5
S113306097E10E946E138093452080914520803122
S1133070F8F420911A2630911B26232BB1F468E032
S113308015C00C94F9030E94F90310920620809154
S113309043208F3F31F486E295E10E946E138093C2
S11330A0432080914320803118F461E00C949B13F9
S11330B008950C94D5020E94CD02E2E1F6E2608507
S11330C0848D0C94EC15F8948FE19DE30E943B0EE3
S11330D080918B226EE00E949B137894089584E380
S11330E0E1E8F6E2DF011D928A95E9F78091FD257A
S11330F0813021F40E9425231092FD2508956091CA
S1133100F62582E390E00E945722809188220E9453
S1133110A5140E94ED011092F52582E390E00E942F
S1133120FD218F3F81F488E090E00E944629892B9D
S113313051F480913D200E948A1380913E200E9488
S11331408A130C94DB018091880620912C263091FF
S11331502D26232B51F082FF08C0809144269091A4
S11331604526892B11F40C94C00180912E26909150
S11331702F26039711F40C94C90108951F920F92FE
S11331800FB60F9211240BB60F922F933F934F93C8
S11331905F936F937F938F939F93AF93BF93EF93BB
S11331A0FF930E946E2480910123811110C08091AD
S11331B00226882361F08091F425811108C0809152
S11331C0322690913326892B11F40E9457241092B1
S11331D01126FF91EF91BF91AF919F918F917F91B4
S11331E06F915F914F913F912F910F900BBE0F9074
S11331F00FBE0F901F9018951F920F920FB60F924B
S113320011240BB60F922F933F934F935F936F93B9
S11332107F938F939F93AF93BF93CF93EF93FF933A
S11332208091322690913326892B09F060C082E385
S113323090E00E94FD218F3F39F4809124269091E3
S11332402526892B09F453C085E08093BC260E946F
S11332506E240E94ED010E941C020E94280260E07C
S113326080E00E94022160E081E00E94022160E08F
S113327082E00E94022182E00E94110580912E26A4
S113328090912F2601976091262670912726029708
S113329028F4809128269091292604C080913C2608
S11332A090913D260E94C715C0910806C3FD0FC02A
S11332B00E946E2481E080938506C3FD03C0C09103
S11332C00806FBCF81E08093860610927D2681E07C
S11332D0809302268093FF250E9459188091080646
S11332E083FF03C00E94002502C00E946E24FF9148
S11332F0EF91CF91BF91AF919F918F917F916F91FA
S11333005F914F913F912F910F900BBE0F900FBE85
S11333100F901F9018951F920F920FB60F921124C1
S11333200BB60F92CF92DF92EF92FF920F931F93FF
S11333302F933F934F935F936F937F938F939F93B9
S1133340AF93BF93EF93FF9380916A068D7F809331
S11333506A0680912E2690912F268130910509F4DA
S11333605FC12091012321115BC120912626309158
S11333702726232B69F420917D26222349F02091CE
S11333800620222329F020917D26215020937D269A
S11333902091102621116CC020910F26211168C0A4
S11333A04091F0255091F1256091F2257091F3251B
S11333B0411551056105710509F100910B26109124
S11333C00C2620910D2630910E266A017B01EFEF29
S11333D0CE1ADE0AEE0AFE0AC016D106E206F3068B
S11333E069F000910B2610910C2620910D26309146
S11333F00E26401751076207730779F540910B2693
S113340050910C2660910D2670910E264093F02564
S11334105093F1256093F2257093F3251092F925CA
S11334202091EF252F5F2093EF253091F725321758
S113343008F0F6C01092EF251092F0251092F125B5
S11334401092F2251092F32510920B2610920C265E
S113345010920D2610920E266CC01092EF25109239
S1133460F0251092F1251092F2251092F325D8C080
S113347020911026222309F46CC04091EB25509131
S1133480EC256091ED257091EE25411551056105FE
S1133490710509F10091072610910826209109264B
S11334A030910A266A017B01EFEFCE1ADE0AEE0A9A
S11334B0FE0AC016D106E206F30669F0009107265B
S11334C0109108262091092630910A2640175107A9
S11334D06207730799F54091072650910826609179
S11334E0092670910A264093EB255093EC256093AE
S11334F0ED257093EE251092F9252091EF252F5F8D
S11335002093EF253091F725321708F089C01092E7
S1133510EF251092EB251092EC251092ED251092D8
S1133520EE25109207261092082610920926109272
S11335300A2640E060E00E94F71772C01092EF255F
S11335401092EB251092EC251092ED251092EE25A9
S113355067C04091E7255091E8256091E925709175
S1133560EA25411551056105710509F1009103260C
S11335701091042620910526309106266A017B01CC
S1133580EFEFCE1ADE0AEE0AFE0AC016D106E206F4
S1133590F30669F000910326109104262091052674
S11335A030910626401751076207730779F5409159
S11335B003265091042660910526709106264093B7
S11335C0E7255093E8256093E9257093EA25109246
S11335D0F9252091E6252F5F2093E6253091F725E4
S11335E03217F0F41092E6251092E7251092E825A0
S11335F01092E9251092EA251092032610920426CF
S1133600109205261092062641E094CF1092E625EA
S11336101092E7251092E8251092E9251092EA25E8
S1133620FF91EF91BF91AF919F918F917F916F9196
S11336305F914F913F912F911F910F91FF90EF90C8
S1133640DF90CF900F900BBE0F900FBE0F901F9086
S1133650189581E08093FE2560910E25662321F064
S1133660809189220C949B130895482F50E0FA010D
S11336703197E131F10508F07DC0EC58FE4F0C9410
S113368052301092E4251092E5251092E225109212
S1133690E325ADC08091E4259091E5258160809378
S11336A0E4259093E5258091E2259091E3258160BE
S11336B00EC08091E4259091E5258E7F8093E425CA
S11336C09093E5258091E2259091E3258E7F809368
S11336D0E2259093E3258BC08091E4259091E52524
S11336E08D7F8093E4259093E5258091E225909148
S11336F0E3258D7FECCF8091E4259091E5258260D0
S11337008093E4259093E5258091E2259091E3252B
S11337108260DDCF8091E2259091E3258061D7CF4F
S11337208091E2259091E3258F7ED1CF8091E2258F
S11337309091E3258062CBCF8091E2259091E3259F
S11337408F7DC5CF8091E2259091E3258064BFCF22
S11337508091E2259091E3258F7BB9CF8091E2257A
S11337609091E3258068B3CF8091E2259091E32581
S11337708F77ADCF8823D9F18091092540E050E0BF
S1133780582F5295507F4093E0255093E12580E0D7
S113379090E0909107258093DE259093DF2560913A
S11337A0FE252091E2253091E325623019F4237F30
S11337B024600FC06091FE25237F633051F428609C
S11337C02093E2253093E3251092072510920825D3
S11337D004C02093E2253093E3252091E225842B35
S11337E0952B822B8093E2259093E3250895809175
S11337F0E4259091E5250895CF93DF93CDB7DEB707
S11338002997CDBFDEBF8091A2229091A322A091DF
S1133810A4228F839887A9878091A5229091A622BC
S1133820A091A7228C839D83AE838091A82290913E
S1133830A922A091AA2289839A83AB839BE288ED73
S113384008B684BF90938000A89508BE84E3E9E499
S1133850F6E2DF01982F1D929A95E9F7E1E8F6E286
S1133860DF011D928A95E9F70E944621A8950E94DE
S1133870B42D80918C22882321F00E94D720182F08
S113388001C012E061E083E00E94022180912C26B5
S113389090912D26019739F480918C22882319F078
S11338A084E080938A060E9463240E94FC04809131
S11338B08C22882349F080912C2690912D26892BE7
S11338C019F01092022603C081E08093022689E158
S11338D090E00E9446298093F725809126269091B6
S11338E027260E946A1500912C2681E090E00E9410
S11338F046297C0180E090E00E944629202F41E087
S1133900B7010E948A15809118260E944315609180
S11339101A2680912E260E94EC1580E00E94A8159C
S11339200E943813412F60912C2680912E260E94EC
S11339307F02A89578940E94F512A89580913E2064
S11339408F3F31F489EB98E00E946E1380933E2000
S113395080913E20803128F480913E206CE00E94CA
S11339609B1380912E2690912F26039799F0809196
S11339703D208F3F31F48DEB98E00E946E138093CD
S11339803D2080913D20803128F480913D206AE0E3
S11339900E949B1380918B228F3F31F483E698E140
S11339A00E946E1380938B2280918B22803128F4A5
S11339B080918B226BE00E949B1380918A228F3F1F
S11339C031F48FE698E10E946E1380938A228091ED
S11339D03E2690913F26019761F410923E26109264
S11339E03F2688E090E00E944629892B09F441C0D3
S11339F046C088E090E00E944629892B09F05AC00D
S1133A008091780081FF35C082E390E00E94FD211F
S1133A108093F625813059F41092F52560E00E94D8
S1133A20D50560E082E390E00E9457224DC00E94D9
S1133A30E40181E08093F52561E082E390E00E9457
S1133A405722809188228F3F31F48FE798E10E94BA
S1133A506E138093882280918822803118F461E06B
S1133A600E949B138091F6258F3F71F160E080E006
S1133A7029C082E390E00E94FD218F3F21F060E0A5
S1133A8080E00E94D50582E390E00E94FD218F3FF3
S1133A90D9F488E090E00E944629892BA9F480910A
S1133AA03D200E948A1380913E200E948A130E9426
S1133AB0DB010AC088E090E00E9446290197B1F238
S1133AC060E081E00E94D5058FE7809378008091C3
S1133AD091228823B1F0809190228F3F31F481E0CC
S1133AE09EE20E946E1380939022809190228031F6
S1133AF028F4809190226BE00E949B130E94F502AF
S1133B0006C08091F525811102C00E94012E85E036
S1133B108093BC2610927D2680E00E9411050E94AD
S1133B20252301E0E12C10E077247A9489E4C82E5F
S1133B3086E2D82E94E3F92EAA24A394B12C31E87A
S1133B40832E36E2932EA8958091BC268530D9F732
S1133B50A8958091322690913326892B11F082E02A
S1133B6001C083E00E94351B82E190E00E94462957
S1133B70029731F40E942A21882311F085E001C0C4
S1133B8084E00E94351B8091322690913326892B44
S1133B9041F1609126267091272680E090E00E94F2
S1133BA0C7150E946E240E94ED010E941C020E940F
S1133BB028020E945D2480913D200E948A13709205
S1133BC03D2080913E200E948A1370923E20809175
S1133BD0010480FDFCCF0E945228109244261092CA
S1133BE045268091322690913326892BC9F4809101
S1133BF0880682FF15C08091442690914526892B22
S1133C0079F480912C2690912D26892B49F080916E
S1133C10080683FF03C00E94002502C00E946E2490
S1133C2080918C22882309F498C080912026909159
S1133C302126892B31F48091222690912326892BE9
S1133C4011F061E001C060E084E00E94022182E1A1
S1133C5090E00E9446290197A9F50E942A21882311
S1133C6009F47BC080912E2690912F26039741F46E
S1133C7060911A2682E00E94EC1581E0809301266F
S1133C800E941C020E9428020E9459180E94572474
S1133C908091880620912C2630912D26232B41F0EB
S1133CA082FF06C08091442690914526892B29F0F5
S1133CB080910126882309F450C00E9452280E9452
S1133CC049284BC082E190E00E944629029709F0FE
S1133CD044C00E942A21882321F10E941C020E94D0
S1133CE0280284E190E00E944629892B39F485E179
S1133CF090E00E9446290E9471020CC084E190E089
S1133D000E944629019799F384E190E00E94462994
S1133D10029769F30E945D240E94CD02EE24E3948D
S1133D201CC0EE20D1F08091880620912C26309181
S1133D302D26232B41F082FF06C0809144269091CA
S1133D404526892B29F00E9457240E94D50204C0DD
S1133D500E945D240E94CD02E12C8091FF258823DE
S1133D6091F080918C22882371F08091880682FFE3
S1133D700AC08091442690914526892B21F4109203
S1133D80FF250E94492880910023813009F5809104
S1133D902E2690912F260397B9F0809188062091C2
S1133DA02C2630912D26232B41F082FF06C08091D2
S1133DB0442690914526892B39F081E08093FF2297
S1133DC060E080E00E94D50582E08093002340C03B
S1133DD0809100238230E1F581E08093F4250E94F4
S1133DE05D2482E00E9411050E94F51280E00E9489
S1133DF011051092F4251092002380913E206CE06E
S1133E000E949B1310927D2680912C2690912D2642
S1133E10892B19F40E9457241BC08091880682FFC5
S1133E2006C08091442690914526892B89F00E94F2
S1133E30591881E08093FF250E94572480914426DD
S1133E4090914526029721F410924426109245261B
S1133E508091FE228823F9F08091880620912C26F7
S1133E6030912D26232B41F082FF06C080914426F9
S1133E7090914526892B41F00E946E240E945D2476
S1133E8062E080E00E94D5051092FE2280913D20E0
S1133E9069E00E949B138091492692E8980F923022
S1133EA038F08A3729F00E946F238093492644C151
S1133EB00E945123E12FF0E0E75BF94D808343E05A
S1133EC050E0BE01695F7F4F89E496E20E94BC30F6
S1133ED0892B09F0A7C00E946E240E94ED010E9464
S1133EE01C020E9428020E945D2410924426109213
S1133EF0452680913D200E948A1370923D20809136
S1133F00010480FDFCCF0E94522801110E941E2E44
S1133F10F8941092002683E19DE30E943B0E0E94D8
S1133F20561180913E2690913F260297029720F4E5
S1133F3080910026823021F40E94F32900E0FCC025
S1133F408091010480FDFCCF0E94522880910104DD
S1133F5080FDFCCF60902C2681E090E00E944629F1
S1133F608C0180E090E00E944629262D41E0B801B2
S1133F700E948A15F6018F2D11928A95E9F7D401D2
S1133F80EF2D1D92EA95E9F7789480913E26909161
S1133F903F260397A9F488E090E00E944629892BE4
S1133FA049F061E080E00E94D50563E080E00E9472
S1133FB0D50506C082E390E00E94FD218F3F89F77A
S1133FC082E390E00E94FD218F3F49F488E090E075
S1133FD00E944629892B19F40E94DB0121C080919B
S1133FE02C2690912D26892B71F080918C22882388
S1133FF051F08091880682FF06C0809144269091FA
S11340004526892B59F080912E2690912F260397CF
S113401011F40E94C9010E94572402C00E94C001E9
S113402000E087C043E050E0BE016C5F7F4F89E44D
S113403096E20E94BC30892B89F5F8940E946E2484
S113404080918B220E948A1370928B228091892204
S11340500E94A514D601EF2D1D92EA95E9F710925E
S11340604426109245268091FB25813069F40E94F4
S11340701C020E94CD020E945D240E94280210921C
S1134080FF2588E29DE302C083E19DE30E943B0E8D
S11340900E94402381E08093FD2539C043E050E035
S11340A0BE016F5F7F4F89E496E20E94BC30892B8A
S11340B0C9F5F8940E946E24D601EF2D1D92EA955D
S11340C0E9F7A0924426B092452688E29DE30E9437
S11340D03B0E0E94402381E08093FD25809189223C
S11340E0803140F460910E25662321F0809189226D
S11340F00E949B130E94591881E08093FF258091B0
S11341002626909127260E946A150E9457247894A7
S113411080918A22803180F480918A2262E00E9418
S11341209B130AC0133038F0D601EF2D1D92EA9587
S1134130E9F710E001C01F5F8091FE25882309F490
S113414002CDF8948AE29DE30E943B0E8091FE2505
S1134150833011F41092FC251092FE257894F3CC50
S1134160809152008B6C8093520080915000886043
S1134170809350008091510083FFFCCF83EE8093A5
S113418055008091500080618093500060E081E48C
S113419090E00E94F8288091510084FFFCCF609148
S11341A04000687F646080E490E00C94F82880917B
S11341B08C22882309F185E190E00E94462900972A
S11341C031F0019739F480E88093A50603C080E8B4
S11341D08093A60680E48093A20680E88093A106DB
S11341E084E190E00E944629019741F084E190E047
S11341F00E944629029721F482E0089581E00895FF
S113420080E00895CF93DF93C82FD62F84E190E008
S11342100E9446292C2F30E028173907C1F48091D9
S11342208C228823A1F085E190E0DD2329F00E940F
S11342304629892B29F408C00E944629892B21F498
S113424080E88093A60603C080E88093A506DF91EA
S1134250CF910895CF93C091A80683E190E00E9486
S11342604629892B31F4C6FB882780F991E08927F8
S11342700BC083E190E00E944629019721F4C6FB1C
S1134280882780F901C080E0CF9108950E94B02072
S1134290809150008460809350008091510082FF8F
S11342A0FCCF8DE08093430094E09093420688E134
S11342B0809352068091480682FB882780F9809378
S11342C08C2288E08093420680918C22882341F0DE
S11342D0909382068AE18093920681E08093890616
S11342E028E0209302069AE19093130683E08093DA
S11342F0090620930A0632E0309362069093710611
S11343008093690691E0909346069093410684E079
S11343108093210680E180933206209321068093C6
S113432033068093450620EB20934106909386063E
S11343308093900690918C22992321F080936606B5
S11343408093610682E08093860680938106909133
S11343508C22992321F0809386068093810620E2A3
S1134360209345062093410631E03093A60630930E
S1134370A10682E08093A6068093A10694E0909320
S1134380A6069093A10688E08093A6068093A106D2
S113439080E18093A6068093A10630930206809361
S11343A022062093220620E42093220620E820936C
S11343B022068093460680934106909306069093C6
S11343C001068091A20087608093A20008958091E5
S11343D0CF0187FDFCCF08951F93CF93DF93C0ECEB
S11343E0D1E01A858A8761E08BEC91E00E94F8287D
S11343F01A87DF91CF911F910895CF93DF93EC013A
S11344000E94E721ECECF1E0808188608083D05F3A
S113441088819081977F9083DF91CF910895CF9287
S1134420DF92EF92FF920F931F93CF93DF938C0150
S11344307B016A010E94E721CCECD1E0888188608D
S11344408883B801705FA601C7010E94C9308881C2
S1134450877F8883DF91CF911F910F91FF90EF9019
S1134460DF90CF9008950E94E7218091CF0181FFD2
S113447008C086E38093CA0161E08BEC91E00C9460
S1134480F8280895CF93DF93C82FD62F0E94E721F1
S1134490ACECB1E08C9188608C93EC2FF0E0F05F91
S11344A0D0838C91877F8C93DF91CF910895EF9285
S11344B0FF920F931F93CF93DF93182FF92EE62EBD
S11344C0C0ECD1E00A850E9433220E94E7216E2DC0
S11344D0812F0E9442221A82F982188385E38A87F7
S11344E061E08BEC91E00E94F8280A87DF91CF917C
S11344F01F910F91FF90EF9008950F931F93CF9307
S11345008C010E94E721C0E0F80161918F018C2F9A
S11345100E944222CF5FC032B9F7CF911F910F9111
S11345200895CF93C82F0E94E72120E2C29FC001C3
S11345301124E0ECF1E012829183808385E3CF9132
S11345400C94EC21CF92DF92EF92FF920F931F9382
S1134550CF93DF93EC017B018A010115110541F131
S1134560CE018F719927892BA9F40032110590F09F
S1134570C7010E947D22CE0125E0969587952A9554
S1134580E1F70E949122A09680E2E80EF11C00520D
S11345901109E3CF6E01EFEFCE1ADE0AF701619144
S11345A07F01CE010E94572201501109E601D5CFA7
S11345B0DF91CF911F910F91FF90EF90DF90CF90FB
S11345C00895CF92DF92EF92FF928091B408809188
S11345D0B40882FD05C020E03BE440E050E004C0A4
S11345E020E835E240E050E069017A0183E0CC0C38
S11345F0DD1CEE1CFF1C8A95D1F780E492E4AFE049
S1134600B0E08C199D09AE09BF0964E0880F991FB9
S1134610AA1FBB1F6A95D1F769017A01F694E79442
S1134620D794C794BC01CD016C0D7D1D8E1D9F1DBB
S11346300E94303030693093B7082093B60881E087
S1134640FF90EF90DF90CF900895CF93DF93E0E455
S1134650F6E080E88583818380E48283C0EBD8E040
S11346608D818F738D838BE08D830E94E1228C81F9
S113467088608C838C8180618C83DF91CF910895D5
S1134680E0EBF8E08481877F848384818F7E848358
S113469008959091B10895FFFCCF8093B00880E015
S11346A008958091B10887FFFCCF8091B0080895E8
S11346B08091B10887FD10C080910804909109048D
S11346C089389341A8F382E0809300268091010405
S11346D080FDFCCF0E9452288091B00808958091FB
S11346E0B00808950F931F93CF93DF93D82F01E859
S11346F016E2C0E0CD1739F0F80181918F010E94D4
S11347004923CF5FF7CFDF91CF911F910F91089588
S1134710E0E0FAE010821182168217828FEF84871C
S11347208FEF9FEF80A791A710A211A208951F9267
S11347300F920FB60F9211240BB60F922F933F9343
S11347404F935F936F937F938F939F93AF93BF9395
S1134750EF93FF931092000A80910F26811107C0F6
S11347600E9488238091CA259091CB251DC080E1A9
S1134770809366062091D6253091D72580E0482F76
S113478050E04217530710F48F5FF9CF82E0809313
S1134790850680916A06826080936A060E94882357
S11347A08091D4259091D52580932A0A90932B0A41
S11347B01092200A1092210A80E28093010A8CE070
S11347C08093070A81E08093000AFF91EF91BF91E3
S11347D0AF919F918F917F916F915F914F913F9195
S11347E02F910F900BBE0F900FBE0F901F90189536
S11347F01F920F920FB60F9211240BB60F922F93A4
S11348003F934F935F936F937F938F939F93AF9354
S1134810BF93EF93FF9380910123811109C080918D
S11348200F2682E08093860680E00E94110502C074
S11348300E94FD060E94882320910F268091CE2598
S11348409091CF2580932C0A90932D0A80916A062B
S11348508D7F80936A061092200A1092210A80E4C8
S11348608093010A80E38093070A81E08093000A21
S1134870FF91EF91BF91AF919F918F917F916F9134
S11348805F914F913F912F910F900BBE0F900FBEF0
S11348900F901F90189560938F22E0E4F8E086A3B0
S11348A097A310A211A2118283E086830895A8958C
S11348B080918F22809340080895E0E4F8E010820C
S11348C010A211A20895E0E0F8E08DE090E086A344
S11348D097A310A211A283E181830895E0E0F8E098
S11348E0108281E08093420610A211A208951F92C3
S11348F00F920FB60F9211240BB60F922F933F9382
S11349004F935F936F937F938F939F93AF93BF93D3
S1134910EF93FF938091262690912726892B19F4F3
S113492081E00E9411050E946E24809126269091B8
S11349302726892B09F051C01092000A8091060A9B
S11349408C7F8093060A80910123811105C0809198
S1134950C8259091C92502C087E990E08093280A70
S11349609093290A80910F26811110C01092200A79
S11349701092210A83E18093010A81E080938106E9
S11349808093000A83E08093070A17C080E1809334
S113499065062091D2253091D3252093280A30939F
S11349A0290A1092200A1092210A8093010A83E0B6
S11349B08093070A81E08093000A80910F26811179
S11349C00CC080910123811108C082E08093850688
S11349D080916A06826080936A06FF91EF91BF918D
S11349E0AF919F918F917F916F915F914F913F9183
S11349F02F910F900BBE0F900FBE0F901F90189524
S1134A008091C425882371F080914620909147209D
S1134A10809328089093290881E08093410680932D
S1134A20000808950C946E241F920F920FB60F92F3
S1134A3011240BB60F922F933F934F935F936F9371
S1134A407F938F939F93AF93BF93CF93EF93FF93F2
S1134A508091262690912726019731F48091012395
S1134A60811102C010927D2680910123811109C019
S1134A700E94A81580916A068D7F80936A0681E062
S1134A8004C081E00E94A81586E08093BC26809132
S1134A90000881110AC08091080683FF03C00E94A8
S1134AA0002511C00E946E240EC080911126882317
S1134AB029F00E946E241092112605C080911126BF
S1134AC08F5F80931126A8958091FD25813021F474
S1134AD00E9425231092FD2520911A2630911B2631
S1134AE02115310509F45EC08091012381115AC05A
S1134AF080918C22882309F455C080918D228823CB
S1134B0041F110920F2681E08093102680910726B0
S1134B1090910826A0910926B0910A260196A11D1C
S1134B20B11D8093072690930826A0930926B0937D
S1134B300A268F3F9F4FAF4FBF4F41F41092072675
S1134B40109208261092092610920A2610928D229D
S1134B504EC01092102681E080930F268091032688
S1134B6090910426A0910526B09106260196A11DD8
S1134B70B11D8093032690930426A0930526B09339
S1134B8006268F3F9F4FAF4FBF4F41F4109203262D
S1134B9010920426109205261092062681E0809336
S1134BA08D2225C01092102610920F2680910B267C
S1134BB090910C26A0910D26B0910E260196A11D70
S1134BC0B11D80930B2690930C26A0930D26B093D1
S1134BD00E268F3F9F4FAF4FBF4F01F710920B260A
S1134BE010920C2610920D2610920E26D7CF4091CB
S1134BF02E2650912F26809101234230510509F031
S1134C007FC08111CBC080912626909127260197E1
S1134C1009F4C4C0C0918D22C13041F58091802631
S1134C208F5F809380268091802666E00E94FC2F0F
S1134C3090938026809180268530C1F482E090E0B4
S1134C400E946A150E945724C09348268091FC252F
S1134C50882379F18091032590910425A09105255D
S1134C60B09106258896A11DB11D1BC080914826D0
S1134C70882341F080E090E00E946A150E94572446
S1134C80109248268091FC25882399F08091032571
S1134C9090910425A0910525B09106250796A11DA4
S1134CA0B11D8093032590930425A0930525B0930B
S1134CB006258091FA25813009F0D2C08091F7252C
S1134CC0803109F0CDC08091FC25813041F4809180
S1134CD0F9258F5F8093F9258091F9250CC0809187
S1134CE0FC25823009F0BCC08091F8258F5F809349
S1134CF0F8258091F82590E081970CF4B5C0AAC0FE
S1134D0081114CC08091262690912726019709F4A1
S1134D1045C010924826109280268091FC25882355
S1134D2099F08091032590910425A0910525B091D7
S1134D3006250796A11DB11D809303259093042594
S1134D40A0930525B09306258091FA25813009F0BA
S1134D5087C08091F725803109F082C0452B09F086
S1134D607FC08091FC25813041F48091F9258F5FCB
S1134D708093F9258091F9250CC08091FC2582301F
S1134D8009F06EC08091F8258F5F8093F82580919B
S1134D90F82590E0C1970CF467C05CC080910123B2
S1134DA0811162C08091262690912726019709F0EF
S1134DB05BC010928026109248268091FC2588239F
S1134DC009F44EC08091032590910425A0910525F6
S1134DD0B09106258C599F4FAF4FBF4F8093032549
S1134DE090930425A0930525B09306258091FA2578
S1134DF08130B1F58091F725883021F421153105F2
S1134E0059F002C0843019F4232B31F42DC08031C1
S1134E1019F08230C9F328C09091FC25913041F4F7
S1134E209091F9259F5F9093F9252091F9250BC066
S1134E309091FC259230C1F49091F8259F5F909356
S1134E40F8252091F82530E090E0880F991F82170B
S1134E50930754F462E08091D7220E949B1304C00C
S1134E601092F9251092F8250E9488231092000AC6
S1134E701092200A1092210A1092010A809126268B
S1134E8090912726019799F4C1E0C09381068091FF
S1134E90DC259091DD2580932E0A90932F0A80ECD7
S1134EA08093070A0E946E24C093000A1DC080915B
S1134EB001232091C6253091C72581110BC0809113
S1134EC0DC259091DD25820F931F8093260A909311
S1134ED0270A04C02093260A3093270A83E080938C
S1134EE0060A84E08093000AFF91EF91CF91BF916D
S1134EF0AF919F918F917F916F915F914F913F916E
S1134F002F910F900BBE0F900FBE0F901F9018950E
S1134F101F920F920FB60F9211240BB60F922F937C
S1134F203F934F935F936F937F938F939F93AF932D
S1134F30BF93EF93FF930E948823809101238823DA
S1134F4019F087E080937D2680911026882349F00C
S1134F5080917D26882329F080917D26815080933D
S1134F607D268091080683FF03C00E94002502C0AD
S1134F700E946E2485E08093BC26FF91EF91BF913F
S1134F80AF919F918F917F916F915F914F913F91DD
S1134F902F910F900BBE0F900FBE0F901F9018957E
S1134FA01F920F920FB60F9211240BB60F922F93EC
S1134FB03F934F935F936F937F938F939F93AF939D
S1134FC0BF93EF93FF931092200A1092210A88EE68
S1134FD093E080932E0A90932F0A81E00E9411059A
S1134FE080910F26811106C081E08093850680930D
S1134FF0860605C080E1809365068093660692E08C
S11350009093850680916A06826080936A069093E5
S1135010860680916A068D7F80936A0680E00E94EE
S1135020110580917D2681110BC01092000A809198
S1135030080683FF03C00E94002502C00E946E245C
S113504085E08093BC26FF91EF91BF91AF919F9132
S11350508F917F916F915F914F913F912F910F901D
S11350600BBE0F900FBE0F901F90189560938E2269
S113507080930A0490930B0410920804109209047C
S1135080411104C083E08093020408951092020445
S113509008958091010480FDFCCF80918E2280933D
S11350A0000408958091010480FDFCCF1092000457
S11350B0109208041092090408951F920F920FB6DB
S11350C00F9211240BB60F922F933F934F935F933C
S11350D06F937F938F939F93AF93BF93EF93FF93BC
S11350E00E94ED010E941C020E94280260E080E000
S11350F00E94022160E081E00E94022160E082E0DF
S11351000E94022180916A068D7F80936A068091B5
S11351100126811106C0109202260E945D240E947D
S11351205B1880916A068D7F80936A060E945228DC
S11351308091442690914526029721F410924426AA
S11351401092452680910126882321F11092012690
S113515060911A2680912E260E94EC1580912E26AD
S113516090912F26039711F40E94C901809188061B
S113517020912C2630912D26232B61F082FF0AC02A
S11351808091442690914526892B21F40E945D2428
S11351900E945B1810920B2610920C2610920D267A
S11351A010920E26109207261092082610920926B5
S11351B010920A26109203261092042610920526B5
S11351C01092062685E08093BC26FF91EF91BF9153
S11351D0AF919F918F917F916F915F914F913F918B
S11351E02F910F900BBE0F900FBE0F901F9018952C
S11351F00F93FC0108ED04BF60830F910895409163
S1135200CA01E62FF72F8093CA0184914093CA0103
S113521008959091280694FF07C021E030E0209380
S113522030263093312604C0109230261092312655
S113523095FB882780F996FD8260823061F0833087
S1135240E1F08130A1F082E090E080932E269093EB
S11352502F2680E119C080918C22882341F083E0BD
S113526090E080932E2690932F2681E10DC010921A
S11352702E2610922F268EE007C081E090E08093C6
S11352802E2690932F268FE00C94351B8A3191059E
S113529008F0A6C0FC01EB57FE4F0C9452308091ED
S11352A01626909117267FC08091172680C0809182
S11352B0182690911926089580911A2690911B26FC
S11352C0089580911C2690911D26089580911E2694
S11352D090911F260895809120269091212608956B
S11352E080912226909123260895809124269091DE
S11352F02526089580912E2690912F2681309105A0
S1135300A9F058F082309105D9F0039709F068C0EC
S113531020912A2630912B261FC020912A263091D5
S11353202B26369527953695279516C020912A2643
S113533030912B2654E0369527955A95E1F70CC009
S113534020912A2630912B2646E0369527954A95BA
S1135350E1F72370332704C02370332782E090E001
S113536002C0880F991F2A95E2F708958091262696
S113537090912726089580912826909129260895B2
S113538080912C2690912D26089580912E2690911F
S11353902F2608958091302690913126089580918A
S11353A0342690913526992708958091352690E0EA
S11353B008958091362690913726F5CF809137262F
S11353C0F6CF8091382690913926089580913A2617
S11353D090913B26089580913C2690913D26089516
S11353E08FEF9FEF089580E28093780061E089E772
S11353F090E00E94F828FFCFCF93DF93C2E1D6E27A
S1135400888D998D9068888F998F42E050E06AE288
S113541076E282E190E00E94A222888D998D9F77A6
S1135420888F998F88A599A5906888A799A742E045
S113543050E06AE376E28AE190E00E94A22288A525
S113544099A59F7788A799A78A8D9B8D90688A8F45
S11354509B8F42E050E06CE276E280E290E00E94B2
S1135460A2228A8D9B8D9F778A8F9B8F8C819D81B1
S113547090688C839D8342E050E066E176E282E0AE
S113548090E00E94A2228C819D819F778C839D83D2
S11354908E819F8190688E839F8342E050E068E113
S11354A076E284E090E00E94A2228E819F819F7721
S11354B08E839F838885998590688887998742E041
S11354C050E06AE176E286E090E00E94A2228885BC
S11354D099859F77888799878C899D8990688C8B1B
S11354E09D8B42E050E066E276E28EE090E00E941E
S11354F0A2228C899D899F778C8B9D8B8AA19BA1ED
S113550090688AA39BA342E050E064E376E284E1DE
S113551090E00E94A2228AA19BA19F778AA39BA3C9
S11355208CA19DA190688CA39DA342E050E066E30A
S113553076E286E190E00E94A2228CA19DA19F7751
S11355408CA39DA3DF91CF91089580912E269091F5
S11355502F268130910509F45DC008F44EC08230D5
S1135560910509F443C08330910509F056C0809336
S113557038269093392681E090E080933C269093DE
S11355803D2680911A2690911B26906480931A26BA
S113559090931B2642E050E06AE176E286E090E0D8
S11355A00E94A22280911A2690911B269F7B8093B1
S11355B01A2690931B268091262690912726906484
S11355C0809326269093272642E050E066E276E216
S11355D08EE090E00E94A2228091262690912726B8
S11355E09F7B80932626909327261DC02FE030E0D2
S11355F0209338263093392608C085E090E08093C4
S113560038269093392682E090E080933C2690934C
S11356103D2609C08FE090E0F2CF8FE090E08093C8
S113562038269093392680913826909139269068AF
S1135630809338269093392642E050E068E376E27E
S113564088E190E00E94A222809138269091392628
S11356509F77809338269093392686E190E880934B
S113566040269093412642E050E060E476E280E1F7
S113567090E00E94A22280914026909141269F773B
S1135680809340269093412688E090E880934226B8
S11356909093432642E050E062E476E282E290E0B6
S11356A00E94A22280914226909143269F77809364
S11356B04226909343262091302630913126232B85
S11356C021F0809140269091412680932826909342
S11356D0292680913C2690913D26906880933C2613
S11356E090933D2642E050E06CE376E28CE190E05A
S11356F00E94A22280913C2690913D269F77809320
S11357003C2690933D26089586E3E2E1F6E2DF012C
S11357101D928A95E9F744E250E0BF0180E090E0F1
S11357200E94A2220E94092989E190E080931C260C
S113573090931D268FEF90E080932A2690932B263A
S11357408AE090E080933A2690933B2689E090E0AB
S1135750809316269093172680918C22882339F003
S113576081E090E080932C2690932D2604C0109223
S11357702C2610922D260E94FC290E94A52A109204
S11357809122089542E050E066E176E282E090E002
S11357900E940F2280911626909117269F7780935E
S11357A0162690931726099711F01092912242E041
S11357B050E068E176E284E090E00E940F2280915C
S11357C01826909119269F7780931826909319266E
S11357D0892B11F01092912242E050E06CE276E2C3
S11357E080E290E00E940F2280912C2690912D2639
S11357F09F7780932C2690932D26019729F08091F2
S11358008C2281111092912242E050E06CE176E208
S113581088E090E00E940F2242E050E064E276E2E9
S11358208CE090E00E940F2242E050E06AE276E2CF
S113583082E190E00E940F2280912A2690912B26EB
S11358409F7780932A2690932B268F3F910511F002
S11358501092912242E050E06AE376E28AE190E01D
S11358600E940F2280913A2690913B269F77809345
S11358703A2690933B260A9711F01092912242E027
S113588050E064E376E284E190E00E940F2280918C
S11358903426909135269F7780933426909335262D
S11358A0892B11F01092912242E050E066E376E2F7
S11358B086E190E00E940F2280913626909137264F
S11358C09F778093362690933726892B11F0109278
S11358D0912242E050E06EE376E28EE190E00E9495
S11358E00F2210924426109245260895CF93DF93F9
S11358F000D0CDB7DEB719821A820E944F0F898378
S11359009A8342E050E0BE016F5F7F4F80E090E0F9
S11359100E94A2220F900F90DF91CF91089542E050
S113592050E068E376E288E190E00E940F22209143
S11359302E2630912F2680913826909139262130B9
S1135940310591F138F02230310571F12330310500
S1135950A9F03BC097FD02C096FF06C085E090E029
S11359608093382690933926809138269091392651
S1135970059709F44BC01092912237C097FD02C0DD
S113598096FF06C083E090E08093382690933926F2
S113599080913826909139268330910561F7809360
S11359A03826909339262DC097FD02C096FF06C075
S11359B08FE090E0809338269093392680913826A2
S11359C0909139260F9711F1D6CF97FD02C096FF1B
S11359D006C08FE090E0809338269093392680911A
S11359E03826909139260F9731F680913826909178
S11359F039269F73809338269093392623303105B6
S1135A0071F410921A2610921B2630C08091382609
S1135A10909139269F73809338269093392642E0DB
S1135A2050E06AE176E286E090E00E940F228091E5
S1135A301A2690911B2697FD02C096FF05C010926E
S1135A401A2610921B2602C01092912242E050E0C6
S1135A5066E276E28EE090E00E940F228091262694
S1135A609091272697FD02C096FF05C01092262626
S1135A701092272602C01092912280911A269091AA
S1135A801B269F7380931A2690931B2680912626AB
S1135A90909127269F73809326269093272642E091
S1135AA050E060E476E280E190E00E940F22809171
S1135AB04026909141269F738093402690934126DF
S1135AC0469711F01092912242E050E062E476E2AF
S1135AD082E290E00E940F22809142269091432618
S1135AE09F7380934226909343268830910511F04A
S1135AF0109291222091302630913126232B21F0CF
S1135B0080914026909141268093282690932926BF
S1135B1042E050E06CE376E28CE190E00E940F22D8
S1135B2080913C2690913D2697FD02C096FF10C0BF
S1135B3080912E2690912F26039719F481E090E00E
S1135B4002C082E090E080933C2690933D2602C000
S1135B501092912280913C2690913D269F738093D0
S1135B603C2690933D2608950E943D12811103C066
S1135B700E94842B1CC00E9409290E94C22B0E94EF
S1135B808F2C84E390E00E94FD21813061F481E058
S1135B9090E080933226909333266FEF84E390E075
S1135BA00E94572204C0109232261092332680910C
S1135BB08C22811110C010921A2610921B2610926A
S1135BC02C2610922D2610923426109235261092EF
S1135BD036261092372680911A2690911B26892BFF
S1135BE011F48DE001C08CE00E94351B80912C26BD
S1135BF090912D26892B11F48BE001C08AE00C943E
S1135C00351B80912C2690912D26892B59F080915B
S1135C10880682FF07C081E0209144263091452602
S1135C20232B09F080E00E94FA02809190228031B7
S1135C3020F4809190220C948A1308958091162662
S1135C40909117260997B9F489E090E88093162675
S1135C509093172642E050E066E176E282E090E01D
S1135C600E94A22280911626909117269F778093F6
S1135C701626909317268091182690911926892B21
S1135C80B9F480E090E8809318269093192642E0B6
S1135C9050E068E176E284E090E00E94A2228091E4
S1135CA01826909119269F77809318269093192689
S1135CB080912C2690912D260197B9F481E090E8EB
S1135CC080932C2690932D2642E050E06CE276E2FD
S1135CD080E290E00E94A22280912C2690912D26B1
S1135CE09F7780932C2690932D2680912A2690913D
